{
  "contractName": "Evaluator",
  "abi": [
    {
      "inputs": [
        {
          "internalType": "contract ERC20TD",
          "name": "_TDAMM",
          "type": "address"
        },
        {
          "internalType": "contract ERC20",
          "name": "_dummyToken",
          "type": "address"
        },
        {
          "internalType": "contract IUniswapV2Factory",
          "name": "_uniswapV2Factory",
          "type": "address"
        },
        {
          "internalType": "address",
          "name": "_WETH",
          "type": "address"
        }
      ],
      "stateMutability": "nonpayable",
      "type": "constructor"
    },
    {
      "anonymous": false,
      "inputs": [
        {
          "indexed": false,
          "internalType": "address",
          "name": "erc20Address",
          "type": "address"
        },
        {
          "indexed": false,
          "internalType": "address",
          "name": "dummyTokenAddress",
          "type": "address"
        },
        {
          "indexed": false,
          "internalType": "address",
          "name": "uniFactoryAddress",
          "type": "address"
        },
        {
          "indexed": false,
          "internalType": "address",
          "name": "wethAddress",
          "type": "address"
        }
      ],
      "name": "constructedCorrectly",
      "type": "event"
    },
    {
      "anonymous": false,
      "inputs": [
        {
          "indexed": false,
          "internalType": "string",
          "name": "ticker",
          "type": "string"
        },
        {
          "indexed": false,
          "internalType": "uint256",
          "name": "supply",
          "type": "uint256"
        }
      ],
      "name": "newRandomTickerAndSupply",
      "type": "event"
    },
    {
      "stateMutability": "payable",
      "type": "fallback",
      "payable": true
    },
    {
      "inputs": [],
      "name": "TDAMM",
      "outputs": [
        {
          "internalType": "contract ERC20TD",
          "name": "",
          "type": "address"
        }
      ],
      "stateMutability": "view",
      "type": "function",
      "constant": true
    },
    {
      "inputs": [],
      "name": "WETH",
      "outputs": [
        {
          "internalType": "address",
          "name": "",
          "type": "address"
        }
      ],
      "stateMutability": "view",
      "type": "function",
      "constant": true
    },
    {
      "inputs": [
        {
          "internalType": "address",
          "name": "",
          "type": "address"
        }
      ],
      "name": "assignedSupply",
      "outputs": [
        {
          "internalType": "uint256",
          "name": "",
          "type": "uint256"
        }
      ],
      "stateMutability": "view",
      "type": "function",
      "constant": true
    },
    {
      "inputs": [
        {
          "internalType": "address",
          "name": "",
          "type": "address"
        }
      ],
      "name": "assignedTicker",
      "outputs": [
        {
          "internalType": "string",
          "name": "",
          "type": "string"
        }
      ],
      "stateMutability": "view",
      "type": "function",
      "constant": true
    },
    {
      "inputs": [],
      "name": "dummyToken",
      "outputs": [
        {
          "internalType": "contract ERC20",
          "name": "",
          "type": "address"
        }
      ],
      "stateMutability": "view",
      "type": "function",
      "constant": true
    },
    {
      "inputs": [
        {
          "internalType": "address",
          "name": "",
          "type": "address"
        },
        {
          "internalType": "uint256",
          "name": "",
          "type": "uint256"
        }
      ],
      "name": "exerciceProgression",
      "outputs": [
        {
          "internalType": "bool",
          "name": "",
          "type": "bool"
        }
      ],
      "stateMutability": "view",
      "type": "function",
      "constant": true
    },
    {
      "inputs": [
        {
          "internalType": "address",
          "name": "",
          "type": "address"
        }
      ],
      "name": "hasBeenPaired",
      "outputs": [
        {
          "internalType": "bool",
          "name": "",
          "type": "bool"
        }
      ],
      "stateMutability": "view",
      "type": "function",
      "constant": true
    },
    {
      "inputs": [],
      "name": "nextValueStoreRank",
      "outputs": [
        {
          "internalType": "uint256",
          "name": "",
          "type": "uint256"
        }
      ],
      "stateMutability": "view",
      "type": "function",
      "constant": true
    },
    {
      "inputs": [
        {
          "internalType": "address",
          "name": "",
          "type": "address"
        }
      ],
      "name": "studentErc20",
      "outputs": [
        {
          "internalType": "contract IRichERC20",
          "name": "",
          "type": "address"
        }
      ],
      "stateMutability": "view",
      "type": "function",
      "constant": true
    },
    {
      "inputs": [
        {
          "internalType": "address",
          "name": "",
          "type": "address"
        }
      ],
      "name": "studentExercice",
      "outputs": [
        {
          "internalType": "contract IExerciceSolution",
          "name": "",
          "type": "address"
        }
      ],
      "stateMutability": "view",
      "type": "function",
      "constant": true
    },
    {
      "inputs": [
        {
          "internalType": "address",
          "name": "",
          "type": "address"
        }
      ],
      "name": "teachers",
      "outputs": [
        {
          "internalType": "bool",
          "name": "",
          "type": "bool"
        }
      ],
      "stateMutability": "view",
      "type": "function",
      "constant": true
    },
    {
      "inputs": [],
      "name": "uniswapV2Factory",
      "outputs": [
        {
          "internalType": "contract IUniswapV2Factory",
          "name": "",
          "type": "address"
        }
      ],
      "stateMutability": "view",
      "type": "function",
      "constant": true
    },
    {
      "stateMutability": "payable",
      "type": "receive",
      "payable": true
    },
    {
      "inputs": [],
      "name": "ex1_showIHaveTokens",
      "outputs": [],
      "stateMutability": "nonpayable",
      "type": "function"
    },
    {
      "inputs": [],
      "name": "ex2_showIProvidedLiquidity",
      "outputs": [],
      "stateMutability": "nonpayable",
      "type": "function"
    },
    {
      "inputs": [],
      "name": "ex6a_getTickerAndSupply",
      "outputs": [],
      "stateMutability": "nonpayable",
      "type": "function"
    },
    {
      "inputs": [],
      "name": "ex6b_testErc20TickerAndSupply",
      "outputs": [],
      "stateMutability": "nonpayable",
      "type": "function"
    },
    {
      "inputs": [],
      "name": "ex7_tokenIsTradableOnUniswap",
      "outputs": [],
      "stateMutability": "nonpayable",
      "type": "function"
    },
    {
      "inputs": [],
      "name": "ex8_contractCanSwapVsEth",
      "outputs": [],
      "stateMutability": "nonpayable",
      "type": "function"
    },
    {
      "inputs": [],
      "name": "ex9_contractCanSwapVsDummyToken",
      "outputs": [],
      "stateMutability": "nonpayable",
      "type": "function"
    },
    {
      "inputs": [],
      "name": "ex10_contractCanProvideLiquidity",
      "outputs": [],
      "stateMutability": "nonpayable",
      "type": "function"
    },
    {
      "inputs": [],
      "name": "ex11_contractCanWithdrawLiquidity",
      "outputs": [],
      "stateMutability": "nonpayable",
      "type": "function"
    },
    {
      "inputs": [
        {
          "internalType": "contract IExerciceSolution",
          "name": "studentExercice_",
          "type": "address"
        }
      ],
      "name": "submitExercice",
      "outputs": [],
      "stateMutability": "nonpayable",
      "type": "function"
    },
    {
      "inputs": [
        {
          "internalType": "contract IRichERC20",
          "name": "studentErc20_",
          "type": "address"
        }
      ],
      "name": "submitErc20",
      "outputs": [],
      "stateMutability": "nonpayable",
      "type": "function"
    },
    {
      "inputs": [
        {
          "internalType": "bytes32",
          "name": "_bytes32",
          "type": "bytes32"
        }
      ],
      "name": "bytes32ToString",
      "outputs": [
        {
          "internalType": "string",
          "name": "",
          "type": "string"
        }
      ],
      "stateMutability": "pure",
      "type": "function",
      "constant": true
    },
    {
      "inputs": [
        {
          "internalType": "address",
          "name": "studentAddres",
          "type": "address"
        }
      ],
      "name": "readTicker",
      "outputs": [
        {
          "internalType": "string",
          "name": "",
          "type": "string"
        }
      ],
      "stateMutability": "view",
      "type": "function",
      "constant": true
    },
    {
      "inputs": [
        {
          "internalType": "address",
          "name": "studentAddres",
          "type": "address"
        }
      ],
      "name": "readSupply",
      "outputs": [
        {
          "internalType": "uint256",
          "name": "",
          "type": "uint256"
        }
      ],
      "stateMutability": "view",
      "type": "function",
      "constant": true
    },
    {
      "inputs": [
        {
          "internalType": "uint256[20]",
          "name": "_randomSupplies",
          "type": "uint256[20]"
        },
        {
          "internalType": "string[20]",
          "name": "_randomTickers",
          "type": "string[20]"
        }
      ],
      "name": "setRandomTickersAndSupply",
      "outputs": [],
      "stateMutability": "nonpayable",
      "type": "function"
    }
  ],
  "bytecode": "0x60806040523480156200001157600080fd5b5060405162005daf38038062005daf833981810160405262000037919081019062000202565b83600160006101000a81548173ffffffffffffffffffffffffffffffffffffffff021916908373ffffffffffffffffffffffffffffffffffffffff16021790555082600260006101000a81548173ffffffffffffffffffffffffffffffffffffffff021916908373ffffffffffffffffffffffffffffffffffffffff16021790555081600360006101000a81548173ffffffffffffffffffffffffffffffffffffffff021916908373ffffffffffffffffffffffffffffffffffffffff16021790555080600460006101000a81548173ffffffffffffffffffffffffffffffffffffffff021916908373ffffffffffffffffffffffffffffffffffffffff1602179055507f82169bf8e2a940653a3005b8fbe3a01d8ab56fd5bbbcd0bf31ac67b29cee1f97600160009054906101000a900473ffffffffffffffffffffffffffffffffffffffff168484846040516200019494939291906200027f565b60405180910390a150505050620003a4565b600081519050620001b7816200033c565b92915050565b600081519050620001ce8162000356565b92915050565b600081519050620001e58162000370565b92915050565b600081519050620001fc816200038a565b92915050565b600080600080608085870312156200021957600080fd5b60006200022987828801620001bd565b94505060206200023c87828801620001d4565b93505060406200024f87828801620001eb565b92505060606200026287828801620001a6565b91505092959194509250565b6200027981620002cc565b82525050565b60006080820190506200029660008301876200026e565b620002a560208301866200026e565b620002b460408301856200026e565b620002c360608301846200026e565b95945050505050565b6000620002d9826200031c565b9050919050565b6000620002ed82620002cc565b9050919050565b60006200030182620002cc565b9050919050565b60006200031582620002cc565b9050919050565b600073ffffffffffffffffffffffffffffffffffffffff82169050919050565b6200034781620002cc565b81146200035357600080fd5b50565b6200036181620002e0565b81146200036d57600080fd5b50565b6200037b81620002f4565b81146200038757600080fd5b50565b620003958162000308565b8114620003a157600080fd5b50565b6159fb80620003b46000396000f3fe60806040526004361061019f5760003560e01c80639b148f17116100ec578063cec7f2101161008a578063e22ebfd611610064578063e22ebfd61461055d578063e84092a91461059a578063f0a47f78146105b1578063f4fdbb88146105ee576101a6565b8063cec7f210146104cc578063d1a2e76e146104f7578063e22b5dcf14610520576101a6565b8063c7599393116100c6578063c759939314610470578063ca5cd0c214610487578063cc093e7a1461049e578063cd3560d7146104b5576101a6565b80639b148f17146103f15780639f91f51614610408578063ad5c464814610445576101a6565b806352954cf31161015957806367479ec51161013357806367479ec5146103235780637c83d61a1461034e5780637db60caf146103775780639201de55146103b4576101a6565b806352954cf3146102ca57806359d0f713146102e15780635d54c3701461030c576101a6565b8062a3491a146101a857806305b12022146101e55780630c58c95c146101fc5780632236d353146102395780632e64c5001461026257806339119dce1461029f576101a6565b366101a657005b005b3480156101b457600080fd5b506101cf60048036036101ca91908101906149de565b61062b565b6040516101dc91906153e9565b60405180910390f35b3480156101f157600080fd5b506101fa6106db565b005b34801561020857600080fd5b50610223600480360361021e91908101906149de565b610af0565b6040516102309190615398565b60405180910390f35b34801561024557600080fd5b50610260600480360361025b9190810190614b14565b610b23565b005b34801561026e57600080fd5b5061028960048036036102849190810190614a30565b610c53565b6040516102969190615347565b60405180910390f35b3480156102ab57600080fd5b506102b4610c82565b6040516102c191906155bd565b60405180910390f35b3480156102d657600080fd5b506102df610c88565b005b3480156102ed57600080fd5b506102f6610ed5565b60405161030391906153ce565b60405180910390f35b34801561031857600080fd5b50610321610efb565b005b34801561032f57600080fd5b50610338611a74565b604051610345919061537d565b60405180910390f35b34801561035a57600080fd5b5061037560048036036103709190810190614b3d565b611a9a565b005b34801561038357600080fd5b5061039e600480360361039991908101906149de565b611bca565b6040516103ab91906155bd565b60405180910390f35b3480156103c057600080fd5b506103db60048036036103d69190810190614aeb565b611be2565b6040516103e8919061540b565b60405180910390f35b3480156103fd57600080fd5b50610406611d3f565b005b34801561041457600080fd5b5061042f600480360361042a91908101906149de565b611f90565b60405161043c91906155bd565b60405180910390f35b34801561045157600080fd5b5061045a611fd9565b604051610467919061521b565b60405180910390f35b34801561047c57600080fd5b50610485611fff565b005b34801561049357600080fd5b5061049c6123f4565b005b3480156104aa57600080fd5b506104b3612a31565b005b3480156104c157600080fd5b506104ca61334b565b005b3480156104d857600080fd5b506104e1613bf3565b6040516104ee9190615362565b60405180910390f35b34801561050357600080fd5b5061051e60048036036105199190810190614a6c565b613c19565b005b34801561052c57600080fd5b50610547600480360361054291908101906149de565b613d6e565b604051610554919061540b565b60405180910390f35b34801561056957600080fd5b50610584600480360361057f91908101906149de565b613e4f565b60405161059191906153b3565b60405180910390f35b3480156105a657600080fd5b506105af613e82565b005b3480156105bd57600080fd5b506105d860048036036105d391908101906149de565b6144bf565b6040516105e59190615347565b60405180910390f35b3480156105fa57600080fd5b50610615600480360361061091908101906149de565b6144df565b6040516106229190615347565b60405180910390f35b602e6020528060005260406000206000915090508054600181600116156101000203166002900480601f0160208091040260200160405190810160405280929190818152602001828054600181600116156101000203166002900480156106d35780601f106106a8576101008083540402835291602001916106d3565b820191906000526020600020905b8154815290600101906020018083116106b657829003601f168201915b505050505081565b600080600460009054906101000a900473ffffffffffffffffffffffffffffffffffffffff1673ffffffffffffffffffffffffffffffffffffffff16603160003373ffffffffffffffffffffffffffffffffffffffff1673ffffffffffffffffffffffffffffffffffffffff16815260200190815260200160002060009054906101000a900473ffffffffffffffffffffffffffffffffffffffff1673ffffffffffffffffffffffffffffffffffffffff161061081a57600460009054906101000a900473ffffffffffffffffffffffffffffffffffffffff16603160003373ffffffffffffffffffffffffffffffffffffffff1673ffffffffffffffffffffffffffffffffffffffff16815260200190815260200160002060009054906101000a900473ffffffffffffffffffffffffffffffffffffffff1661089e565b603160003373ffffffffffffffffffffffffffffffffffffffff1673ffffffffffffffffffffffffffffffffffffffff16815260200190815260200160002060009054906101000a900473ffffffffffffffffffffffffffffffffffffffff16600460009054906101000a900473ffffffffffffffffffffffffffffffffffffffff165b915091506000600360009054906101000a900473ffffffffffffffffffffffffffffffffffffffff1673ffffffffffffffffffffffffffffffffffffffff1663e6a4390584846040518363ffffffff1660e01b815260040161090192919061531e565b60206040518083038186803b15801561091957600080fd5b505afa15801561092d573d6000803e3d6000fd5b505050506040513d601f19601f820116820180604052506109519190810190614a07565b9050600073ffffffffffffffffffffffffffffffffffffffff168173ffffffffffffffffffffffffffffffffffffffff16141561098d57600080fd5b603060003373ffffffffffffffffffffffffffffffffffffffff1673ffffffffffffffffffffffffffffffffffffffff16815260200190815260200160002060006007815260200190815260200160002060009054906101000a900460ff16610aeb576001603060003373ffffffffffffffffffffffffffffffffffffffff1673ffffffffffffffffffffffffffffffffffffffff16815260200190815260200160002060006007815260200190815260200160002060006101000a81548160ff021916908315150217905550600160009054906101000a900473ffffffffffffffffffffffffffffffffffffffff1673ffffffffffffffffffffffffffffffffffffffff1663158a49883360056040518363ffffffff1660e01b8152600401610ab89291906152f5565b600060405180830381600087803b158015610ad257600080fd5b505af1158015610ae6573d6000803e3d6000fd5b505050505b505050565b60326020528060005260406000206000915054906101000a900473ffffffffffffffffffffffffffffffffffffffff1681565b603360008273ffffffffffffffffffffffffffffffffffffffff1673ffffffffffffffffffffffffffffffffffffffff16815260200190815260200160002060009054906101000a900460ff1615610b7a57600080fd5b80603260003373ffffffffffffffffffffffffffffffffffffffff1673ffffffffffffffffffffffffffffffffffffffff16815260200190815260200160002060006101000a81548173ffffffffffffffffffffffffffffffffffffffff021916908373ffffffffffffffffffffffffffffffffffffffff1602179055506001603360008373ffffffffffffffffffffffffffffffffffffffff1673ffffffffffffffffffffffffffffffffffffffff16815260200190815260200160002060006101000a81548160ff02191690831515021790555050565b60306020528160005260406000206020528060005260406000206000915091509054906101000a900460ff1681565b602d5481565b6000600260009054906101000a900473ffffffffffffffffffffffffffffffffffffffff1673ffffffffffffffffffffffffffffffffffffffff166370a08231336040518263ffffffff1660e01b8152600401610ce59190615236565b60206040518083038186803b158015610cfd57600080fd5b505afa158015610d11573d6000803e3d6000fd5b505050506040513d601f19601f82011682018060405250610d359190810190614bf6565b11610d75576040517f08c379a0000000000000000000000000000000000000000000000000000000008152600401610d6c906154bd565b60405180910390fd5b603060003373ffffffffffffffffffffffffffffffffffffffff1673ffffffffffffffffffffffffffffffffffffffff16815260200190815260200160002060006001815260200190815260200160002060009054906101000a900460ff16610ed3576001603060003373ffffffffffffffffffffffffffffffffffffffff1673ffffffffffffffffffffffffffffffffffffffff16815260200190815260200160002060006001815260200190815260200160002060006101000a81548160ff021916908315150217905550600160009054906101000a900473ffffffffffffffffffffffffffffffffffffffff1673ffffffffffffffffffffffffffffffffffffffff1663158a49883360026040518363ffffffff1660e01b8152600401610ea09291906152cc565b600060405180830381600087803b158015610eba57600080fd5b505af1158015610ece573d6000803e3d6000fd5b505050505b565b600360009054906101000a900473ffffffffffffffffffffffffffffffffffffffff1681565b600080600260009054906101000a900473ffffffffffffffffffffffffffffffffffffffff1673ffffffffffffffffffffffffffffffffffffffff16603160003373ffffffffffffffffffffffffffffffffffffffff1673ffffffffffffffffffffffffffffffffffffffff16815260200190815260200160002060009054906101000a900473ffffffffffffffffffffffffffffffffffffffff1673ffffffffffffffffffffffffffffffffffffffff161061103a57600260009054906101000a900473ffffffffffffffffffffffffffffffffffffffff16603160003373ffffffffffffffffffffffffffffffffffffffff1673ffffffffffffffffffffffffffffffffffffffff16815260200190815260200160002060009054906101000a900473ffffffffffffffffffffffffffffffffffffffff166110be565b603160003373ffffffffffffffffffffffffffffffffffffffff1673ffffffffffffffffffffffffffffffffffffffff16815260200190815260200160002060009054906101000a900473ffffffffffffffffffffffffffffffffffffffff16600260009054906101000a900473ffffffffffffffffffffffffffffffffffffffff165b915091506000600360009054906101000a900473ffffffffffffffffffffffffffffffffffffffff1673ffffffffffffffffffffffffffffffffffffffff1663e6a4390584846040518363ffffffff1660e01b815260040161112192919061531e565b60206040518083038186803b15801561113957600080fd5b505afa15801561114d573d6000803e3d6000fd5b505050506040513d601f19601f820116820180604052506111719190810190614a07565b905060008190506000808273ffffffffffffffffffffffffffffffffffffffff16630902f1ac6040518163ffffffff1660e01b815260040160606040518083038186803b1580156111c157600080fd5b505afa1580156111d5573d6000803e3d6000fd5b505050506040513d601f19601f820116820180604052506111f99190810190614ba7565b50915091506000603160003373ffffffffffffffffffffffffffffffffffffffff1673ffffffffffffffffffffffffffffffffffffffff16815260200190815260200160002060009054906101000a900473ffffffffffffffffffffffffffffffffffffffff1673ffffffffffffffffffffffffffffffffffffffff166370a08231603260003373ffffffffffffffffffffffffffffffffffffffff1673ffffffffffffffffffffffffffffffffffffffff16815260200190815260200160002060009054906101000a900473ffffffffffffffffffffffffffffffffffffffff166040518263ffffffff1660e01b81526004016112f7919061521b565b60206040518083038186803b15801561130f57600080fd5b505afa158015611323573d6000803e3d6000fd5b505050506040513d601f19601f820116820180604052506113479190810190614bf6565b90506000600260009054906101000a900473ffffffffffffffffffffffffffffffffffffffff1673ffffffffffffffffffffffffffffffffffffffff166370a08231603260003373ffffffffffffffffffffffffffffffffffffffff1673ffffffffffffffffffffffffffffffffffffffff16815260200190815260200160002060009054906101000a900473ffffffffffffffffffffffffffffffffffffffff166040518263ffffffff1660e01b8152600401611405919061521b565b60206040518083038186803b15801561141d57600080fd5b505afa158015611431573d6000803e3d6000fd5b505050506040513d601f19601f820116820180604052506114559190810190614bf6565b9050603260003373ffffffffffffffffffffffffffffffffffffffff1673ffffffffffffffffffffffffffffffffffffffff16815260200190815260200160002060009054906101000a900473ffffffffffffffffffffffffffffffffffffffff1673ffffffffffffffffffffffffffffffffffffffff16637c587b226040518163ffffffff1660e01b8152600401600060405180830381600087803b1580156114fe57600080fd5b505af1158015611512573d6000803e3d6000fd5b505050506000808673ffffffffffffffffffffffffffffffffffffffff16630902f1ac6040518163ffffffff1660e01b815260040160606040518083038186803b15801561155f57600080fd5b505afa158015611573573d6000803e3d6000fd5b505050506040513d601f19601f820116820180604052506115979190810190614ba7565b5091509150816dffffffffffffffffffffffffffff16866dffffffffffffffffffffffffffff161080156115ea5750806dffffffffffffffffffffffffffff16856dffffffffffffffffffffffffffff16105b611629576040517f08c379a00000000000000000000000000000000000000000000000000000000081526004016116209061553d565b60405180910390fd5b6000603160003373ffffffffffffffffffffffffffffffffffffffff1673ffffffffffffffffffffffffffffffffffffffff16815260200190815260200160002060009054906101000a900473ffffffffffffffffffffffffffffffffffffffff1673ffffffffffffffffffffffffffffffffffffffff166370a08231603260003373ffffffffffffffffffffffffffffffffffffffff1673ffffffffffffffffffffffffffffffffffffffff16815260200190815260200160002060009054906101000a900473ffffffffffffffffffffffffffffffffffffffff166040518263ffffffff1660e01b8152600401611722919061521b565b60206040518083038186803b15801561173a57600080fd5b505afa15801561174e573d6000803e3d6000fd5b505050506040513d601f19601f820116820180604052506117729190810190614bf6565b9050808514156117b7576040517f08c379a00000000000000000000000000000000000000000000000000000000081526004016117ae9061559d565b60405180910390fd5b6000600260009054906101000a900473ffffffffffffffffffffffffffffffffffffffff1673ffffffffffffffffffffffffffffffffffffffff166370a08231603260003373ffffffffffffffffffffffffffffffffffffffff1673ffffffffffffffffffffffffffffffffffffffff16815260200190815260200160002060009054906101000a900473ffffffffffffffffffffffffffffffffffffffff166040518263ffffffff1660e01b8152600401611873919061521b565b60206040518083038186803b15801561188b57600080fd5b505afa15801561189f573d6000803e3d6000fd5b505050506040513d601f19601f820116820180604052506118c39190810190614bf6565b905080851415611908576040517f08c379a00000000000000000000000000000000000000000000000000000000081526004016118ff9061551d565b60405180910390fd5b603060003373ffffffffffffffffffffffffffffffffffffffff1673ffffffffffffffffffffffffffffffffffffffff16815260200190815260200160002060006009815260200190815260200160002060009054906101000a900460ff16611a66576001603060003373ffffffffffffffffffffffffffffffffffffffff1673ffffffffffffffffffffffffffffffffffffffff16815260200190815260200160002060006009815260200190815260200160002060006101000a81548160ff021916908315150217905550600160009054906101000a900473ffffffffffffffffffffffffffffffffffffffff1673ffffffffffffffffffffffffffffffffffffffff1663158a49883360026040518363ffffffff1660e01b8152600401611a339291906152cc565b600060405180830381600087803b158015611a4d57600080fd5b505af1158015611a61573d6000803e3d6000fd5b505050505b505050505050505050505050565b600260009054906101000a900473ffffffffffffffffffffffffffffffffffffffff1681565b603360008273ffffffffffffffffffffffffffffffffffffffff1673ffffffffffffffffffffffffffffffffffffffff16815260200190815260200160002060009054906101000a900460ff1615611af157600080fd5b80603160003373ffffffffffffffffffffffffffffffffffffffff1673ffffffffffffffffffffffffffffffffffffffff16815260200190815260200160002060006101000a81548173ffffffffffffffffffffffffffffffffffffffff021916908373ffffffffffffffffffffffffffffffffffffffff1602179055506001603360008373ffffffffffffffffffffffffffffffffffffffff1673ffffffffffffffffffffffffffffffffffffffff16815260200190815260200160002060006101000a81548160ff02191690831515021790555050565b602f6020528060005260406000206000915090505481565b606060008090505b60208160ff16108015611c355750600060f81b838260ff1660208110611c0c57fe5b1a60f81b7effffffffffffffffffffffffffffffffffffffffffffffffffffffffffffff191614155b15611c47578080600101915050611bea565b60608160ff166040519080825280601f01601f191660200182016040528015611c7f5781602001600182028038833980820191505090505b509050600091505b60208260ff16108015611cd25750600060f81b848360ff1660208110611ca957fe5b1a60f81b7effffffffffffffffffffffffffffffffffffffffffffffffffffffffffffff191614155b15611d3557838260ff1660208110611ce657fe5b1a60f81b818360ff1681518110611cf957fe5b60200101907effffffffffffffffffffffffffffffffffffffffffffffffffffffffffffff1916908160001a9053508180600101925050611c87565b8092505050919050565b670de0b6b3a76400006005602d5460148110611d5757fe5b015402602f60003373ffffffffffffffffffffffffffffffffffffffff1673ffffffffffffffffffffffffffffffffffffffff168152602001908152602001600020819055506019602d5460148110611dac57fe5b01602e60003373ffffffffffffffffffffffffffffffffffffffff1673ffffffffffffffffffffffffffffffffffffffff1681526020019081526020016000209080546001816001161561010002031660029004611e0b929190614558565b506001602d600082825401925050819055506014602d5410611e30576000602d819055505b603060003373ffffffffffffffffffffffffffffffffffffffff1673ffffffffffffffffffffffffffffffffffffffff16815260200190815260200160002060006005815260200190815260200160002060009054906101000a900460ff16611f8e576001603060003373ffffffffffffffffffffffffffffffffffffffff1673ffffffffffffffffffffffffffffffffffffffff16815260200190815260200160002060006005815260200190815260200160002060006101000a81548160ff021916908315150217905550600160009054906101000a900473ffffffffffffffffffffffffffffffffffffffff1673ffffffffffffffffffffffffffffffffffffffff1663158a49883360026040518363ffffffff1660e01b8152600401611f5b9291906152cc565b600060405180830381600087803b158015611f7557600080fd5b505af1158015611f89573d6000803e3d6000fd5b505050505b565b6000602f60008373ffffffffffffffffffffffffffffffffffffffff1673ffffffffffffffffffffffffffffffffffffffff168152602001908152602001600020549050919050565b600460009054906101000a900473ffffffffffffffffffffffffffffffffffffffff1681565b600080600460009054906101000a900473ffffffffffffffffffffffffffffffffffffffff1673ffffffffffffffffffffffffffffffffffffffff16600260009054906101000a900473ffffffffffffffffffffffffffffffffffffffff1673ffffffffffffffffffffffffffffffffffffffff16106120c457600460009054906101000a900473ffffffffffffffffffffffffffffffffffffffff16600260009054906101000a900473ffffffffffffffffffffffffffffffffffffffff1661210b565b600260009054906101000a900473ffffffffffffffffffffffffffffffffffffffff16600460009054906101000a900473ffffffffffffffffffffffffffffffffffffffff165b915091506000600360009054906101000a900473ffffffffffffffffffffffffffffffffffffffff1673ffffffffffffffffffffffffffffffffffffffff1663e6a4390584846040518363ffffffff1660e01b815260040161216e92919061531e565b60206040518083038186803b15801561218657600080fd5b505afa15801561219a573d6000803e3d6000fd5b505050506040513d601f19601f820116820180604052506121be9190810190614a07565b9050600081905060008173ffffffffffffffffffffffffffffffffffffffff166370a08231336040518263ffffffff1660e01b81526004016122009190615236565b60206040518083038186803b15801561221857600080fd5b505afa15801561222c573d6000803e3d6000fd5b505050506040513d601f19601f820116820180604052506122509190810190614bf6565b11612290576040517f08c379a0000000000000000000000000000000000000000000000000000000008152600401612287906154dd565b60405180910390fd5b603060003373ffffffffffffffffffffffffffffffffffffffff1673ffffffffffffffffffffffffffffffffffffffff16815260200190815260200160002060006002815260200190815260200160002060009054906101000a900460ff166123ee576001603060003373ffffffffffffffffffffffffffffffffffffffff1673ffffffffffffffffffffffffffffffffffffffff16815260200190815260200160002060006002815260200190815260200160002060006101000a81548160ff021916908315150217905550600160009054906101000a900473ffffffffffffffffffffffffffffffffffffffff1673ffffffffffffffffffffffffffffffffffffffff1663158a49883360026040518363ffffffff1660e01b81526004016123bb9291906152cc565b600060405180830381600087803b1580156123d557600080fd5b505af11580156123e9573d6000803e3d6000fd5b505050505b50505050565b600080600460009054906101000a900473ffffffffffffffffffffffffffffffffffffffff1673ffffffffffffffffffffffffffffffffffffffff16603160003373ffffffffffffffffffffffffffffffffffffffff1673ffffffffffffffffffffffffffffffffffffffff16815260200190815260200160002060009054906101000a900473ffffffffffffffffffffffffffffffffffffffff1673ffffffffffffffffffffffffffffffffffffffff161061253357600460009054906101000a900473ffffffffffffffffffffffffffffffffffffffff16603160003373ffffffffffffffffffffffffffffffffffffffff1673ffffffffffffffffffffffffffffffffffffffff16815260200190815260200160002060009054906101000a900473ffffffffffffffffffffffffffffffffffffffff166125b7565b603160003373ffffffffffffffffffffffffffffffffffffffff1673ffffffffffffffffffffffffffffffffffffffff16815260200190815260200160002060009054906101000a900473ffffffffffffffffffffffffffffffffffffffff16600460009054906101000a900473ffffffffffffffffffffffffffffffffffffffff165b915091506000600360009054906101000a900473ffffffffffffffffffffffffffffffffffffffff1673ffffffffffffffffffffffffffffffffffffffff1663e6a4390584846040518363ffffffff1660e01b815260040161261a92919061531e565b60206040518083038186803b15801561263257600080fd5b505afa158015612646573d6000803e3d6000fd5b505050506040513d601f19601f8201168201806040525061266a9190810190614a07565b905060008190506000808273ffffffffffffffffffffffffffffffffffffffff16630902f1ac6040518163ffffffff1660e01b815260040160606040518083038186803b1580156126ba57600080fd5b505afa1580156126ce573d6000803e3d6000fd5b505050506040513d601f19601f820116820180604052506126f29190810190614ba7565b5091509150603260003373ffffffffffffffffffffffffffffffffffffffff1673ffffffffffffffffffffffffffffffffffffffff16815260200190815260200160002060009054906101000a900473ffffffffffffffffffffffffffffffffffffffff1673ffffffffffffffffffffffffffffffffffffffff16637ea382c16040518163ffffffff1660e01b8152600401600060405180830381600087803b15801561279e57600080fd5b505af11580156127b2573d6000803e3d6000fd5b505050506000808473ffffffffffffffffffffffffffffffffffffffff16630902f1ac6040518163ffffffff1660e01b815260040160606040518083038186803b1580156127ff57600080fd5b505afa158015612813573d6000803e3d6000fd5b505050506040513d601f19601f820116820180604052506128379190810190614ba7565b5091509150816dffffffffffffffffffffffffffff16846dffffffffffffffffffffffffffff1611801561288a5750806dffffffffffffffffffffffffffff16836dffffffffffffffffffffffffffff16115b6128c9576040517f08c379a00000000000000000000000000000000000000000000000000000000081526004016128c09061553d565b60405180910390fd5b603060003373ffffffffffffffffffffffffffffffffffffffff1673ffffffffffffffffffffffffffffffffffffffff1681526020019081526020016000206000600b815260200190815260200160002060009054906101000a900460ff16612a27576001603060003373ffffffffffffffffffffffffffffffffffffffff1673ffffffffffffffffffffffffffffffffffffffff1681526020019081526020016000206000600b815260200190815260200160002060006101000a81548160ff021916908315150217905550600160009054906101000a900473ffffffffffffffffffffffffffffffffffffffff1673ffffffffffffffffffffffffffffffffffffffff1663158a49883360026040518363ffffffff1660e01b81526004016129f49291906152cc565b600060405180830381600087803b158015612a0e57600080fd5b505af1158015612a22573d6000803e3d6000fd5b505050505b5050505050505050565b600080600460009054906101000a900473ffffffffffffffffffffffffffffffffffffffff1673ffffffffffffffffffffffffffffffffffffffff16603160003373ffffffffffffffffffffffffffffffffffffffff1673ffffffffffffffffffffffffffffffffffffffff16815260200190815260200160002060009054906101000a900473ffffffffffffffffffffffffffffffffffffffff1673ffffffffffffffffffffffffffffffffffffffff1610612b7057600460009054906101000a900473ffffffffffffffffffffffffffffffffffffffff16603160003373ffffffffffffffffffffffffffffffffffffffff1673ffffffffffffffffffffffffffffffffffffffff16815260200190815260200160002060009054906101000a900473ffffffffffffffffffffffffffffffffffffffff16612bf4565b603160003373ffffffffffffffffffffffffffffffffffffffff1673ffffffffffffffffffffffffffffffffffffffff16815260200190815260200160002060009054906101000a900473ffffffffffffffffffffffffffffffffffffffff16600460009054906101000a900473ffffffffffffffffffffffffffffffffffffffff165b915091506000600360009054906101000a900473ffffffffffffffffffffffffffffffffffffffff1673ffffffffffffffffffffffffffffffffffffffff1663e6a4390584846040518363ffffffff1660e01b8152600401612c5792919061531e565b60206040518083038186803b158015612c6f57600080fd5b505afa158015612c83573d6000803e3d6000fd5b505050506040513d601f19601f82011682018060405250612ca79190810190614a07565b905060008190506000808273ffffffffffffffffffffffffffffffffffffffff16630902f1ac6040518163ffffffff1660e01b815260040160606040518083038186803b158015612cf757600080fd5b505afa158015612d0b573d6000803e3d6000fd5b505050506040513d601f19601f82011682018060405250612d2f9190810190614ba7565b50915091506000603160003373ffffffffffffffffffffffffffffffffffffffff1673ffffffffffffffffffffffffffffffffffffffff16815260200190815260200160002060009054906101000a900473ffffffffffffffffffffffffffffffffffffffff1673ffffffffffffffffffffffffffffffffffffffff166370a08231603260003373ffffffffffffffffffffffffffffffffffffffff1673ffffffffffffffffffffffffffffffffffffffff16815260200190815260200160002060009054906101000a900473ffffffffffffffffffffffffffffffffffffffff166040518263ffffffff1660e01b8152600401612e2d919061521b565b60206040518083038186803b158015612e4557600080fd5b505afa158015612e59573d6000803e3d6000fd5b505050506040513d601f19601f82011682018060405250612e7d9190810190614bf6565b9050603260003373ffffffffffffffffffffffffffffffffffffffff1673ffffffffffffffffffffffffffffffffffffffff16815260200190815260200160002060009054906101000a900473ffffffffffffffffffffffffffffffffffffffff1673ffffffffffffffffffffffffffffffffffffffff1663c4a859936040518163ffffffff1660e01b8152600401600060405180830381600087803b158015612f2657600080fd5b505af1158015612f3a573d6000803e3d6000fd5b505050506000808573ffffffffffffffffffffffffffffffffffffffff16630902f1ac6040518163ffffffff1660e01b815260040160606040518083038186803b158015612f8757600080fd5b505afa158015612f9b573d6000803e3d6000fd5b505050506040513d601f19601f82011682018060405250612fbf9190810190614ba7565b5091509150816dffffffffffffffffffffffffffff16856dffffffffffffffffffffffffffff16141580156130145750806dffffffffffffffffffffffffffff16846dffffffffffffffffffffffffffff1614155b613053576040517f08c379a000000000000000000000000000000000000000000000000000000000815260040161304a9061553d565b60405180910390fd5b6000603160003373ffffffffffffffffffffffffffffffffffffffff1673ffffffffffffffffffffffffffffffffffffffff16815260200190815260200160002060009054906101000a900473ffffffffffffffffffffffffffffffffffffffff1673ffffffffffffffffffffffffffffffffffffffff166370a08231603260003373ffffffffffffffffffffffffffffffffffffffff1673ffffffffffffffffffffffffffffffffffffffff16815260200190815260200160002060009054906101000a900473ffffffffffffffffffffffffffffffffffffffff166040518263ffffffff1660e01b815260040161314c919061521b565b60206040518083038186803b15801561316457600080fd5b505afa158015613178573d6000803e3d6000fd5b505050506040513d601f19601f8201168201806040525061319c9190810190614bf6565b9050808414156131e1576040517f08c379a00000000000000000000000000000000000000000000000000000000081526004016131d89061545d565b60405180910390fd5b603060003373ffffffffffffffffffffffffffffffffffffffff1673ffffffffffffffffffffffffffffffffffffffff16815260200190815260200160002060006008815260200190815260200160002060009054906101000a900460ff1661333f576001603060003373ffffffffffffffffffffffffffffffffffffffff1673ffffffffffffffffffffffffffffffffffffffff16815260200190815260200160002060006008815260200190815260200160002060006101000a81548160ff021916908315150217905550600160009054906101000a900473ffffffffffffffffffffffffffffffffffffffff1673ffffffffffffffffffffffffffffffffffffffff1663158a49883360016040518363ffffffff1660e01b815260040161330c9291906152a3565b600060405180830381600087803b15801561332657600080fd5b505af115801561333a573d6000803e3d6000fd5b505050505b50505050505050505050565b603060003373ffffffffffffffffffffffffffffffffffffffff1673ffffffffffffffffffffffffffffffffffffffff16815260200190815260200160002060006005815260200190815260200160002060009054906101000a900460ff166133b357600080fd5b613575602e60003373ffffffffffffffffffffffffffffffffffffffff1673ffffffffffffffffffffffffffffffffffffffff1681526020019081526020016000208054600181600116156101000203166002900480601f0160208091040260200160405190810160405280929190818152602001828054600181600116156101000203166002900480156134895780601f1061345e57610100808354040283529160200191613489565b820191906000526020600020905b81548152906001019060200180831161346c57829003601f168201915b5050505050603160003373ffffffffffffffffffffffffffffffffffffffff1673ffffffffffffffffffffffffffffffffffffffff16815260200190815260200160002060009054906101000a900473ffffffffffffffffffffffffffffffffffffffff1673ffffffffffffffffffffffffffffffffffffffff166395d89b416040518163ffffffff1660e01b815260040160006040518083038186803b15801561353357600080fd5b505afa158015613547573d6000803e3d6000fd5b505050506040513d6000823e3d601f19601f820116820180604052506135709190810190614b66565b6144ff565b6135b4576040517f08c379a00000000000000000000000000000000000000000000000000000000081526004016135ab9061549d565b60405180910390fd5b603160003373ffffffffffffffffffffffffffffffffffffffff1673ffffffffffffffffffffffffffffffffffffffff16815260200190815260200160002060009054906101000a900473ffffffffffffffffffffffffffffffffffffffff1673ffffffffffffffffffffffffffffffffffffffff166318160ddd6040518163ffffffff1660e01b815260040160206040518083038186803b15801561365957600080fd5b505afa15801561366d573d6000803e3d6000fd5b505050506040513d601f19601f820116820180604052506136919190810190614bf6565b602f60003373ffffffffffffffffffffffffffffffffffffffff1673ffffffffffffffffffffffffffffffffffffffff1681526020019081526020016000205414613711576040517f08c379a00000000000000000000000000000000000000000000000000000000081526004016137089061555d565b60405180910390fd5b6000603160003373ffffffffffffffffffffffffffffffffffffffff1673ffffffffffffffffffffffffffffffffffffffff16815260200190815260200160002060009054906101000a900473ffffffffffffffffffffffffffffffffffffffff1673ffffffffffffffffffffffffffffffffffffffff1663dd62ed3e30336040518363ffffffff1660e01b81526004016137ad929190615251565b60206040518083038186803b1580156137c557600080fd5b505afa1580156137d9573d6000803e3d6000fd5b505050506040513d601f19601f820116820180604052506137fd9190810190614bf6565b1461383d576040517f08c379a00000000000000000000000000000000000000000000000000000000081526004016138349061557d565b60405180910390fd5b6000603160003373ffffffffffffffffffffffffffffffffffffffff1673ffffffffffffffffffffffffffffffffffffffff16815260200190815260200160002060009054906101000a900473ffffffffffffffffffffffffffffffffffffffff1673ffffffffffffffffffffffffffffffffffffffff166370a08231306040518263ffffffff1660e01b81526004016138d79190615236565b60206040518083038186803b1580156138ef57600080fd5b505afa158015613903573d6000803e3d6000fd5b505050506040513d601f19601f820116820180604052506139279190810190614bf6565b14613967576040517f08c379a000000000000000000000000000000000000000000000000000000000815260040161395e906154fd565b60405180910390fd5b603160003373ffffffffffffffffffffffffffffffffffffffff1673ffffffffffffffffffffffffffffffffffffffff16815260200190815260200160002060009054906101000a900473ffffffffffffffffffffffffffffffffffffffff1673ffffffffffffffffffffffffffffffffffffffff1663095ea7b333600a6040518363ffffffff1660e01b8152600401613a0292919061527a565b602060405180830381600087803b158015613a1c57600080fd5b505af1158015613a30573d6000803e3d6000fd5b505050506040513d601f19601f82011682018060405250613a549190810190614ac2565b613a93576040517f08c379a0000000000000000000000000000000000000000000000000000000008152600401613a8a9061547d565b60405180910390fd5b603060003373ffffffffffffffffffffffffffffffffffffffff1673ffffffffffffffffffffffffffffffffffffffff16815260200190815260200160002060006006815260200190815260200160002060009054906101000a900460ff16613bf1576001603060003373ffffffffffffffffffffffffffffffffffffffff1673ffffffffffffffffffffffffffffffffffffffff16815260200190815260200160002060006006815260200190815260200160002060006101000a81548160ff021916908315150217905550600160009054906101000a900473ffffffffffffffffffffffffffffffffffffffff1673ffffffffffffffffffffffffffffffffffffffff1663158a49883360026040518363ffffffff1660e01b8152600401613bbe9291906152cc565b600060405180830381600087803b158015613bd857600080fd5b505af1158015613bec573d6000803e3d6000fd5b505050505b565b600160009054906101000a900473ffffffffffffffffffffffffffffffffffffffff1681565b600160009054906101000a900473ffffffffffffffffffffffffffffffffffffffff1673ffffffffffffffffffffffffffffffffffffffff1663f0a47f78336040518263ffffffff1660e01b8152600401613c749190615236565b60206040518083038186803b158015613c8c57600080fd5b505afa158015613ca0573d6000803e3d6000fd5b505050506040513d601f19601f82011682018060405250613cc49190810190614ac2565b613ccd57600080fd5b816005906014613cde9291906145df565b50806019906014613cf092919061461f565b506000602d8190555060008090505b6014811015613d69577fcc783cf5d663570e7c7576cec91f24975b35b957c8dd67766710be25c48cf60260198260148110613d3657fe5b0160058360148110613d4457fe5b0154604051613d5492919061542d565b60405180910390a18080600101915050613cff565b505050565b6060602e60008373ffffffffffffffffffffffffffffffffffffffff1673ffffffffffffffffffffffffffffffffffffffff1681526020019081526020016000208054600181600116156101000203166002900480601f016020809104026020016040519081016040528092919081815260200182805460018160011615610100020316600290048015613e435780601f10613e1857610100808354040283529160200191613e43565b820191906000526020600020905b815481529060010190602001808311613e2657829003601f168201915b50505050509050919050565b60316020528060005260406000206000915054906101000a900473ffffffffffffffffffffffffffffffffffffffff1681565b600080600460009054906101000a900473ffffffffffffffffffffffffffffffffffffffff1673ffffffffffffffffffffffffffffffffffffffff16603160003373ffffffffffffffffffffffffffffffffffffffff1673ffffffffffffffffffffffffffffffffffffffff16815260200190815260200160002060009054906101000a900473ffffffffffffffffffffffffffffffffffffffff1673ffffffffffffffffffffffffffffffffffffffff1610613fc157600460009054906101000a900473ffffffffffffffffffffffffffffffffffffffff16603160003373ffffffffffffffffffffffffffffffffffffffff1673ffffffffffffffffffffffffffffffffffffffff16815260200190815260200160002060009054906101000a900473ffffffffffffffffffffffffffffffffffffffff16614045565b603160003373ffffffffffffffffffffffffffffffffffffffff1673ffffffffffffffffffffffffffffffffffffffff16815260200190815260200160002060009054906101000a900473ffffffffffffffffffffffffffffffffffffffff16600460009054906101000a900473ffffffffffffffffffffffffffffffffffffffff165b915091506000600360009054906101000a900473ffffffffffffffffffffffffffffffffffffffff1673ffffffffffffffffffffffffffffffffffffffff1663e6a4390584846040518363ffffffff1660e01b81526004016140a892919061531e565b60206040518083038186803b1580156140c057600080fd5b505afa1580156140d4573d6000803e3d6000fd5b505050506040513d601f19601f820116820180604052506140f89190810190614a07565b905060008190506000808273ffffffffffffffffffffffffffffffffffffffff16630902f1ac6040518163ffffffff1660e01b815260040160606040518083038186803b15801561414857600080fd5b505afa15801561415c573d6000803e3d6000fd5b505050506040513d601f19601f820116820180604052506141809190810190614ba7565b5091509150603260003373ffffffffffffffffffffffffffffffffffffffff1673ffffffffffffffffffffffffffffffffffffffff16815260200190815260200160002060009054906101000a900473ffffffffffffffffffffffffffffffffffffffff1673ffffffffffffffffffffffffffffffffffffffff1663e8078d946040518163ffffffff1660e01b8152600401600060405180830381600087803b15801561422c57600080fd5b505af1158015614240573d6000803e3d6000fd5b505050506000808473ffffffffffffffffffffffffffffffffffffffff16630902f1ac6040518163ffffffff1660e01b815260040160606040518083038186803b15801561428d57600080fd5b505afa1580156142a1573d6000803e3d6000fd5b505050506040513d601f19601f820116820180604052506142c59190810190614ba7565b5091509150816dffffffffffffffffffffffffffff16846dffffffffffffffffffffffffffff161080156143185750806dffffffffffffffffffffffffffff16836dffffffffffffffffffffffffffff16105b614357576040517f08c379a000000000000000000000000000000000000000000000000000000000815260040161434e9061553d565b60405180910390fd5b603060003373ffffffffffffffffffffffffffffffffffffffff1673ffffffffffffffffffffffffffffffffffffffff1681526020019081526020016000206000600a815260200190815260200160002060009054906101000a900460ff166144b5576001603060003373ffffffffffffffffffffffffffffffffffffffff1673ffffffffffffffffffffffffffffffffffffffff1681526020019081526020016000206000600a815260200190815260200160002060006101000a81548160ff021916908315150217905550600160009054906101000a900473ffffffffffffffffffffffffffffffffffffffff1673ffffffffffffffffffffffffffffffffffffffff1663158a49883360026040518363ffffffff1660e01b81526004016144829291906152cc565b600060405180830381600087803b15801561449c57600080fd5b505af11580156144b0573d6000803e3d6000fd5b505050505b5050505050505050565b60006020528060005260406000206000915054906101000a900460ff1681565b60336020528060005260406000206000915054906101000a900460ff1681565b6000816040516020016145129190615204565b60405160208183030381529060405280519060200120836040516020016145399190615204565b6040516020818303038152906040528051906020012014905092915050565b828054600181600116156101000203166002900490600052602060002090601f016020900481019282601f1061459157805485556145ce565b828001600101855582156145ce57600052602060002091601f016020900482015b828111156145cd5782548255916001019190600101906145b2565b5b5090506145db9190614672565b5090565b826014810192821561460e579160200282015b8281111561460d5782518255916020019190600101906145f2565b5b50905061461b9190614672565b5090565b8260148101928215614661579160200282015b82811115614660578251829080519060200190614650929190614697565b5091602001919060010190614632565b5b50905061466e9190614717565b5090565b61469491905b80821115614690576000816000905550600101614678565b5090565b90565b828054600181600116156101000203166002900490600052602060002090601f016020900481019282601f106146d857805160ff1916838001178555614706565b82800160010185558215614706579182015b828111156147055782518255916020019190600101906146ea565b5b5090506147139190614672565b5090565b61474091905b8082111561473c57600081816147339190614743565b5060010161471d565b5090565b90565b50805460018160011615610100020316600290046000825580601f106147695750614788565b601f0160209004906000526020600020908101906147879190614672565b5b50565b60008135905061479a8161590d565b92915050565b6000815190506147af8161590d565b92915050565b600082601f8301126147c657600080fd5b60146147d96147d482615605565b6155d8565b9150818360005b8381101561481057813586016147f688826148e2565b8452602084019350602083019250506001810190506147e0565b5050505092915050565b600082601f83011261482b57600080fd5b601461483e61483982615627565b6155d8565b9150818385602084028201111561485457600080fd5b60005b83811015614884578161486a888261499f565b845260208401935060208301925050600181019050614857565b5050505092915050565b60008151905061489d81615924565b92915050565b6000813590506148b28161593b565b92915050565b6000813590506148c781615952565b92915050565b6000813590506148dc81615969565b92915050565b600082601f8301126148f357600080fd5b813561490661490182615649565b6155d8565b9150808252602083016020830185838301111561492257600080fd5b61492d8382846158ba565b50505092915050565b600082601f83011261494757600080fd5b815161495a61495582615675565b6155d8565b9150808252602083016020830185838301111561497657600080fd5b6149818382846158c9565b50505092915050565b60008151905061499981615980565b92915050565b6000813590506149ae81615997565b92915050565b6000815190506149c381615997565b92915050565b6000815190506149d8816159ae565b92915050565b6000602082840312156149f057600080fd5b60006149fe8482850161478b565b91505092915050565b600060208284031215614a1957600080fd5b6000614a27848285016147a0565b91505092915050565b60008060408385031215614a4357600080fd5b6000614a518582860161478b565b9250506020614a628582860161499f565b9150509250929050565b6000806102a08385031215614a8057600080fd5b6000614a8e8582860161481a565b92505061028083013567ffffffffffffffff811115614aac57600080fd5b614ab8858286016147b5565b9150509250929050565b600060208284031215614ad457600080fd5b6000614ae28482850161488e565b91505092915050565b600060208284031215614afd57600080fd5b6000614b0b848285016148a3565b91505092915050565b600060208284031215614b2657600080fd5b6000614b34848285016148b8565b91505092915050565b600060208284031215614b4f57600080fd5b6000614b5d848285016148cd565b91505092915050565b600060208284031215614b7857600080fd5b600082015167ffffffffffffffff811115614b9257600080fd5b614b9e84828501614936565b91505092915050565b600080600060608486031215614bbc57600080fd5b6000614bca8682870161498a565b9350506020614bdb8682870161498a565b9250506040614bec868287016149c9565b9150509250925092565b600060208284031215614c0857600080fd5b6000614c16848285016149b4565b91505092915050565b614c2881615788565b82525050565b614c37816156e8565b82525050565b614c46816156fa565b82525050565b614c558161579a565b82525050565b614c64816157be565b82525050565b614c73816157e2565b82525050565b614c8281615806565b82525050565b614c918161582a565b82525050565b614ca08161584e565b82525050565b614caf81615860565b82525050565b614cbe81615872565b82525050565b614ccd81615884565b82525050565b6000614cde826156c1565b614ce881856156cc565b9350614cf88185602086016158c9565b614d01816158fc565b840191505092915050565b6000614d17826156c1565b614d2181856156dd565b9350614d318185602086016158c9565b80840191505092915050565b6000614d48826156b6565b614d5281856156cc565b9350614d628185602086016158c9565b614d6b816158fc565b840191505092915050565b600081546001811660008114614d935760018114614db957614dfd565b607f6002830416614da481876156cc565b955060ff198316865260208601935050614dfd565b60028204614dc781876156cc565b9550614dd2856156a1565b60005b82811015614df457815481890152600182019150602081019050614dd5565b80880195505050505b505092915050565b6000614e126028836156cc565b91507f596f75207374696c6c2068617665207468652073616d6520616d6f756e74206f60008301527f6620746f6b656e730000000000000000000000000000000000000000000000006020830152604082019050919050565b6000614e786017836156cc565b91507f417070726f7665206e6f7420696d706c656d656e7465640000000000000000006000830152602082019050919050565b6000614eb86010836156cc565b91507f496e636f7272656374207469636b6572000000000000000000000000000000006000830152602082019050919050565b6000614ef86030836156cc565b91507f596f7520646f206e6f7420686f6c642064756d6d79546f6b656e732e2042757960008301527f207468656d206f6e20556e6973776170000000000000000000000000000000006020830152604082019050919050565b6000614f5e602e836156cc565b91507f596f7520646f206e6f7420686f6c64206c697175696469747920696e2074686560008301527f20726571756972656420706f6f6c0000000000000000000000000000000000006020830152604082019050919050565b6000614fc4602c836156cc565b91507f42616c616e63654f66206e6f7420696d706c656d656e746564206f7220696e6360008301527f6f72726563746c792073657400000000000000000000000000000000000000006020830152604082019050919050565b600061502a602e836156cc565b91507f596f75207374696c6c2068617665207468652073616d6520616d6f756e74206f60008301527f662064756d6d7920746f6b656e730000000000000000000000000000000000006020830152604082019050919050565b60006150906028836156cc565b91507f4e6f206c6971756964697479206368616e676520696e20796f757220746f6b6560008301527f6e277320706f6f6c0000000000000000000000000000000000000000000000006020830152604082019050919050565b60006150f66010836156cc565b91507f496e636f727265637420737570706c79000000000000000000000000000000006000830152602082019050919050565b6000615136602c836156cc565b91507f416c6c6f77616e6365206e6f7420696d706c656d656e746564206f7220696e6360008301527f6f72726563746c792073657400000000000000000000000000000000000000006020830152604082019050919050565b600061519c602d836156cc565b91507f596f75207374696c6c2068617665207468652073616d6520616d6f756e74206f60008301527f6620796f757220746f6b656e73000000000000000000000000000000000000006020830152604082019050919050565b6151fe8161576e565b82525050565b60006152108284614d0c565b915081905092915050565b60006020820190506152306000830184614c2e565b92915050565b600060208201905061524b6000830184614c1f565b92915050565b60006040820190506152666000830185614c1f565b6152736020830184614c1f565b9392505050565b600060408201905061528f6000830185614c1f565b61529c6020830184614c97565b9392505050565b60006040820190506152b86000830185614c1f565b6152c56020830184614ca6565b9392505050565b60006040820190506152e16000830185614c1f565b6152ee6020830184614cb5565b9392505050565b600060408201905061530a6000830185614c1f565b6153176020830184614cc4565b9392505050565b60006040820190506153336000830185614c2e565b6153406020830184614c2e565b9392505050565b600060208201905061535c6000830184614c3d565b92915050565b60006020820190506153776000830184614c4c565b92915050565b60006020820190506153926000830184614c5b565b92915050565b60006020820190506153ad6000830184614c6a565b92915050565b60006020820190506153c86000830184614c79565b92915050565b60006020820190506153e36000830184614c88565b92915050565b600060208201905081810360008301526154038184614d3d565b905092915050565b600060208201905081810360008301526154258184614cd3565b905092915050565b600060408201905081810360008301526154478185614d76565b905061545660208301846151f5565b9392505050565b6000602082019050818103600083015261547681614e05565b9050919050565b6000602082019050818103600083015261549681614e6b565b9050919050565b600060208201905081810360008301526154b681614eab565b9050919050565b600060208201905081810360008301526154d681614eeb565b9050919050565b600060208201905081810360008301526154f681614f51565b9050919050565b6000602082019050818103600083015261551681614fb7565b9050919050565b600060208201905081810360008301526155368161501d565b9050919050565b6000602082019050818103600083015261555681615083565b9050919050565b60006020820190508181036000830152615576816150e9565b9050919050565b6000602082019050818103600083015261559681615129565b9050919050565b600060208201905081810360008301526155b68161518f565b9050919050565b60006020820190506155d260008301846151f5565b92915050565b6000604051905081810181811067ffffffffffffffff821117156155fb57600080fd5b8060405250919050565b600067ffffffffffffffff82111561561c57600080fd5b602082029050919050565b600067ffffffffffffffff82111561563e57600080fd5b602082029050919050565b600067ffffffffffffffff82111561566057600080fd5b601f19601f8301169050602081019050919050565b600067ffffffffffffffff82111561568c57600080fd5b601f19601f8301169050602081019050919050565b60008190508160005260206000209050919050565b600081519050919050565b600081519050919050565b600082825260208201905092915050565b600081905092915050565b60006156f38261574e565b9050919050565b60008115159050919050565b6000819050919050565b600061571b826156e8565b9050919050565b600061572d826156e8565b9050919050565b60006dffffffffffffffffffffffffffff82169050919050565b600073ffffffffffffffffffffffffffffffffffffffff82169050919050565b6000819050919050565b600063ffffffff82169050919050565b600061579382615896565b9050919050565b60006157a5826157ac565b9050919050565b60006157b78261574e565b9050919050565b60006157c9826157d0565b9050919050565b60006157db8261574e565b9050919050565b60006157ed826157f4565b9050919050565b60006157ff8261574e565b9050919050565b600061581182615818565b9050919050565b60006158238261574e565b9050919050565b60006158358261583c565b9050919050565b60006158478261574e565b9050919050565b60006158598261576e565b9050919050565b600061586b8261576e565b9050919050565b600061587d8261576e565b9050919050565b600061588f8261576e565b9050919050565b60006158a1826158a8565b9050919050565b60006158b38261574e565b9050919050565b82818337600083830152505050565b60005b838110156158e75780820151818401526020810190506158cc565b838111156158f6576000848401525b50505050565b6000601f19601f8301169050919050565b615916816156e8565b811461592157600080fd5b50565b61592d816156fa565b811461593857600080fd5b50565b61594481615706565b811461594f57600080fd5b50565b61595b81615710565b811461596657600080fd5b50565b61597281615722565b811461597d57600080fd5b50565b61598981615734565b811461599457600080fd5b50565b6159a08161576e565b81146159ab57600080fd5b50565b6159b781615778565b81146159c257600080fd5b5056fea26469706673582212203ce99ce16d0fc0497e655da41cea05540b9d3a7c05d01a9587dd749722c62bdd64736f6c63430006020033",
  "source": "pragma solidity ^0.6.0;\r\npragma experimental ABIEncoderV2;\r\n\r\nimport \"./ERC20TD.sol\";\r\nimport \"./IExerciceSolution.sol\";\r\nimport \"./IRichERC20.sol\";\r\nimport \"./utils/IUniswapV2Factory.sol\";\r\nimport \"./utils/IUniswapV2Pair.sol\";\r\n\r\ncontract Evaluator \r\n{\r\n\r\n\tmapping(address => bool) public teachers;\r\n\tERC20TD public TDAMM;\r\n\r\n\tERC20 public dummyToken;\r\n\tIUniswapV2Factory public uniswapV2Factory;\r\n\taddress public WETH;\r\n\r\n\tuint256[20] private randomSupplies;\r\n\tstring[20] private randomTickers;\r\n \tuint public nextValueStoreRank;\r\n\r\n \tmapping(address => string) public assignedTicker;\r\n \tmapping(address => uint256) public assignedSupply;\r\n \tmapping(address => mapping(uint256 => bool)) public exerciceProgression;\r\n \tmapping(address => IRichERC20) public studentErc20;\r\n \tmapping(address => IExerciceSolution) public studentExercice;\r\n \tmapping(address => bool) public hasBeenPaired;\r\n\r\n \tevent newRandomTickerAndSupply(string ticker, uint256 supply);\r\n \tevent constructedCorrectly(address erc20Address, address dummyTokenAddress, address uniFactoryAddress, address wethAddress);\r\n\tconstructor(ERC20TD _TDAMM, ERC20 _dummyToken, IUniswapV2Factory _uniswapV2Factory, address _WETH) \r\n\tpublic \r\n\t{\r\n\t\tTDAMM = _TDAMM;\r\n\t\tdummyToken = _dummyToken;\r\n\t\tuniswapV2Factory = _uniswapV2Factory;\r\n\t\tWETH = _WETH;\r\n\t\temit constructedCorrectly(address(TDAMM), address(_dummyToken), address(_uniswapV2Factory), _WETH);\r\n\r\n\t}\r\n\r\n\tfallback () external payable \r\n\t{}\r\n\r\n\treceive () external payable \r\n\t{}\r\n\r\n\tfunction ex1_showIHaveTokens()\r\n\tpublic\r\n\t{\r\n\t\trequire(dummyToken.balanceOf(msg.sender) > 0, \"You do not hold dummyTokens. Buy them on Uniswap\");\r\n\r\n\t\tif (!exerciceProgression[msg.sender][1])\r\n\t\t{\r\n\t\t\texerciceProgression[msg.sender][1] = true;\r\n\t\t\tTDAMM.distributeTokens(msg.sender, 2);\r\n\t\t}\r\n\r\n\t}\r\n\r\n\tfunction ex2_showIProvidedLiquidity()\r\n\tpublic\r\n\t{\r\n\t\t// Getting address from factory for pair dummyToken / WETH\r\n\t\t(address token0, address token1) = address(dummyToken) < WETH ? (address(dummyToken), WETH) : (WETH, address(dummyToken));\r\n\t\taddress dummyTokenAndWethPair = uniswapV2Factory.getPair(token0, token1);\r\n\r\n\t\t// Checking if caller holds LP token\r\n\t\tERC20 dummyTokenAndWethPairAsERC20 = ERC20(dummyTokenAndWethPair);\r\n\t\trequire(dummyTokenAndWethPairAsERC20.balanceOf(msg.sender) > 0, \"You do not hold liquidity in the required pool\");\r\n\t\tif (!exerciceProgression[msg.sender][2])\r\n\t\t{\r\n\t\t\texerciceProgression[msg.sender][2] = true;\r\n\t\t\tTDAMM.distributeTokens(msg.sender, 2);\r\n\t\t}\r\n\t}\r\n\r\n\tfunction ex6a_getTickerAndSupply()\r\n\tpublic\r\n\t{\r\n\t\tassignedSupply[msg.sender] = randomSupplies[nextValueStoreRank]*1000000000000000000;\r\n\t\t// assignedTicker[msg.sender] = bytes32ToString(randomTickers[nextValueStoreRank]);\r\n\t\tassignedTicker[msg.sender] = randomTickers[nextValueStoreRank];\r\n\r\n\t\tnextValueStoreRank += 1;\r\n\t\tif (nextValueStoreRank >= 20)\r\n\t\t{\r\n\t\t\tnextValueStoreRank = 0;\r\n\t\t}\r\n\r\n\t\t// Crediting points\r\n\t\tif (!exerciceProgression[msg.sender][5])\r\n\t\t{\r\n\t\t\texerciceProgression[msg.sender][5] = true;\r\n\t\t\tTDAMM.distributeTokens(msg.sender, 2);\r\n\t\t}\r\n\t}\r\n\r\n\tfunction ex6b_testErc20TickerAndSupply()\r\n\tpublic\r\n\t{\r\n\t\t// Checking ticker and supply were received\r\n\t\trequire(exerciceProgression[msg.sender][5]);\r\n\r\n\t\t// Checking ticker was set properly\r\n\t\trequire(_compareStrings(assignedTicker[msg.sender], studentErc20[msg.sender].symbol()), \"Incorrect ticker\");\r\n\t\t// Checking supply was set properly\r\n\t\trequire(assignedSupply[msg.sender] == studentErc20[msg.sender].totalSupply(), \"Incorrect supply\");\r\n\t\t// Checking some ERC20 functions were created\r\n\t\trequire(studentErc20[msg.sender].allowance(address(this), msg.sender) == 0, \"Allowance not implemented or incorrectly set\");\r\n\t\trequire(studentErc20[msg.sender].balanceOf(address(this)) == 0, \"BalanceOf not implemented or incorrectly set\");\r\n\t\trequire(studentErc20[msg.sender].approve(msg.sender, 10), \"Approve not implemented\");\r\n\r\n\t\t// Crediting points\r\n\t\tif (!exerciceProgression[msg.sender][6])\r\n\t\t{\r\n\t\t\texerciceProgression[msg.sender][6] = true;\r\n\t\t\t// Creating ERC20\r\n\t\t\tTDAMM.distributeTokens(msg.sender, 2);\r\n\t\t}\r\n\r\n\t}\r\n\r\n\tfunction ex7_tokenIsTradableOnUniswap()\r\n\tpublic\r\n\t{\r\n\t\t// Retrieving address of pair from library\r\n\t\t(address token0, address token1) = address(studentErc20[msg.sender]) < WETH ? (address(studentErc20[msg.sender]), WETH) : (WETH, address(studentErc20[msg.sender]));\r\n\t\taddress studentTokenAndWethPair = uniswapV2Factory.getPair(token0, token1);\r\n\r\n\t\trequire(studentTokenAndWethPair != address(0));\r\n\r\n\t\t// Crediting points\r\n\t\tif (!exerciceProgression[msg.sender][7])\r\n\t\t{\r\n\t\t\texerciceProgression[msg.sender][7] = true;\r\n\t\t\t// Creating ERC20\r\n\t\t\tTDAMM.distributeTokens(msg.sender, 5);\r\n\t\t}\r\n\r\n\t}\r\n\r\n\tfunction ex8_contractCanSwapVsEth()\r\n\tpublic\r\n\t{\r\n\t\t// Retrieving address of pair from library\r\n\t\t(address token0, address token1) = address(studentErc20[msg.sender]) < WETH ? (address(studentErc20[msg.sender]), WETH) : (WETH, address(studentErc20[msg.sender]));\r\n\t\taddress studentTokenAndWethPair = uniswapV2Factory.getPair(token0, token1);\r\n\r\n\t\t// Checking pair balance before calling exercice contract\r\n\t\tIUniswapV2Pair studentTokenAndWethPairInstance = IUniswapV2Pair(studentTokenAndWethPair);\r\n\t\t(uint112 reserve0, uint112 reserve1, ) = studentTokenAndWethPairInstance.getReserves();\r\n\r\n\t\t// Checking caller balance before executing contract\r\n\t\tuint initBalance = studentErc20[msg.sender].balanceOf(address(studentExercice[msg.sender]));\r\n\r\n\t\t// Calling student contract to tell him to provide liquidity\r\n\t\tstudentExercice[msg.sender].swapYourTokenForEth();\r\n\r\n\t\t// Checking pair balance after calling exercice contract\r\n\t\t(uint112 reserve3, uint112 reserve4,) = studentTokenAndWethPairInstance.getReserves();\r\n\t\trequire((reserve0 != reserve3) && (reserve1 != reserve4), \"No liquidity change in your token's pool\");\r\n\r\n\t\t// Checking your token balance after calling the exercice\r\n\t\tuint endBalance = studentErc20[msg.sender].balanceOf(address(studentExercice[msg.sender]));\r\n\t\trequire(initBalance != endBalance, \"You still have the same amount of tokens\");\r\n\r\n\t\t// Crediting points\r\n\t\tif (!exerciceProgression[msg.sender][8])\r\n\t\t{\r\n\t\t\texerciceProgression[msg.sender][8] = true;\r\n\t\t\t// Creating ERC20\r\n\t\t\tTDAMM.distributeTokens(msg.sender, 1);\r\n\t\t}\r\n\r\n\t}\r\n\r\n\tfunction ex9_contractCanSwapVsDummyToken()\r\n\tpublic\r\n\t{\r\n\t\t// Retrieving address of pair from library\r\n\t\t(address token0, address token1) = address(studentErc20[msg.sender]) < address(dummyToken) ? (address(studentErc20[msg.sender]), address(dummyToken)) : (address(dummyToken), address(studentErc20[msg.sender]));\r\n\t\taddress studentTokenAndWethPair = uniswapV2Factory.getPair(token0, token1);\r\n\r\n\t\t// Checking pair balance before calling exercice contract\r\n\t\tIUniswapV2Pair studentTokenAndWethPairInstance = IUniswapV2Pair(studentTokenAndWethPair);\r\n\t\t(uint112 reserve0, uint112 reserve1, ) = studentTokenAndWethPairInstance.getReserves();\r\n\t\t\r\n\t\t// Checking caller balance before executing contract\r\n\t\tuint initTokenBalance = studentErc20[msg.sender].balanceOf(address(studentExercice[msg.sender]));\r\n\t\tuint initDummyBalance = dummyToken.balanceOf(address(studentExercice[msg.sender]));\r\n\r\n\t\t// Calling student contract to tell him to provide liquidity\r\n\t\tstudentExercice[msg.sender].swapYourTokenForDummyToken();\r\n\r\n\t\t// Checking pair balance after calling exercice contract\r\n\t\t(uint112 reserve3, uint112 reserve4,) = studentTokenAndWethPairInstance.getReserves();\r\n\t\trequire((reserve0 < reserve3) && (reserve1 < reserve4), \"No liquidity change in your token's pool\");\r\n\r\n\t\t// Checking your token balance after calling the exercice\r\n\t\tuint endTokenBalance = studentErc20[msg.sender].balanceOf(address(studentExercice[msg.sender]));\r\n\t\trequire(initTokenBalance != endTokenBalance, \"You still have the same amount of your tokens\");\r\n\t\tuint endDummyBalance = dummyToken.balanceOf(address(studentExercice[msg.sender]));\r\n\t\trequire(initDummyBalance != endDummyBalance, \"You still have the same amount of dummy tokens\");\r\n\r\n\t\t// Crediting points\r\n\t\tif (!exerciceProgression[msg.sender][9])\r\n\t\t{\r\n\t\t\texerciceProgression[msg.sender][9] = true;\r\n\t\t\t// Creating ERC20\r\n\t\t\tTDAMM.distributeTokens(msg.sender, 2);\r\n\t\t}\r\n\r\n\t}\r\n\tfunction ex10_contractCanProvideLiquidity()\r\n\tpublic\r\n\t{\r\n\t\t// Retrieving address of pair from library\r\n\t\t(address token0, address token1) = address(studentErc20[msg.sender]) < WETH ? (address(studentErc20[msg.sender]), WETH) : (WETH, address(studentErc20[msg.sender]));\r\n\t\taddress studentTokenAndWethPair = uniswapV2Factory.getPair(token0, token1);\r\n\r\n\t\t// Checking pair balance before calling exercice contract\r\n\t\tIUniswapV2Pair studentTokenAndWethPairInstance = IUniswapV2Pair(studentTokenAndWethPair);\r\n\t\t(uint112 reserve0, uint112 reserve1, ) = studentTokenAndWethPairInstance.getReserves();\r\n\r\n\t\t// Calling student contract to tell him to provide liquidity\r\n\t\tstudentExercice[msg.sender].addLiquidity();\r\n\r\n\t\t// Checking pair balance after calling exercice contract\r\n\t\t(uint112 reserve3, uint112 reserve4,) = studentTokenAndWethPairInstance.getReserves();\r\n\r\n\t\trequire((reserve0 < reserve3) && (reserve1 < reserve4), \"No liquidity change in your token's pool\");\r\n\r\n\t\t// Crediting points\r\n\t\tif (!exerciceProgression[msg.sender][10])\r\n\t\t{\r\n\t\t\texerciceProgression[msg.sender][10] = true;\r\n\t\t\t// Creating ERC20\r\n\t\t\tTDAMM.distributeTokens(msg.sender, 2);\r\n\t\t}\r\n\r\n\t}\r\n\r\n\tfunction ex11_contractCanWithdrawLiquidity()\r\n\tpublic\r\n\t{\r\n\t\t// Retrieving address of pair from library\r\n\t\t(address token0, address token1) = address(studentErc20[msg.sender]) < WETH ? (address(studentErc20[msg.sender]), WETH) : (WETH, address(studentErc20[msg.sender]));\r\n\t\taddress studentTokenAndWethPair = uniswapV2Factory.getPair(token0, token1);\r\n\r\n\t\t// Checking pair balance before calling exercice contract\r\n\t\tIUniswapV2Pair studentTokenAndWethPairInstance = IUniswapV2Pair(studentTokenAndWethPair);\r\n\t\t(uint112 reserve0, uint112 reserve1, ) = studentTokenAndWethPairInstance.getReserves();\r\n\r\n\t\t// Calling student contract to tell him to provide liquidity\r\n\t\tstudentExercice[msg.sender].withdrawLiquidity();\r\n\r\n\t\t// Checking pair balance after calling exercice contract\r\n\t\t(uint112 reserve3, uint112 reserve4,) = studentTokenAndWethPairInstance.getReserves();\r\n\r\n\t\trequire((reserve0 > reserve3) && (reserve1 > reserve4), \"No liquidity change in your token's pool\");\r\n\r\n\t\t// Crediting points\r\n\t\tif (!exerciceProgression[msg.sender][11])\r\n\t\t{\r\n\t\t\texerciceProgression[msg.sender][11] = true;\r\n\t\t\t// Creating ERC20\r\n\t\t\tTDAMM.distributeTokens(msg.sender, 2);\r\n\t\t}\r\n\r\n\t}\r\n\r\n\r\n\tmodifier onlyTeachers() \r\n\t{\r\n\r\n\t    require(TDAMM.teachers(msg.sender));\r\n\t    _;\r\n\t}\r\n\r\n\tfunction submitExercice(IExerciceSolution studentExercice_)\r\n\tpublic\r\n\t{\r\n\t\t// Checking this contract was not used by another group before\r\n\t\trequire(!hasBeenPaired[address(studentExercice_)]);\r\n\r\n\t\t// Assigning passed ERC20 as student ERC20\r\n\t\tstudentExercice[msg.sender] = studentExercice_;\r\n\t\thasBeenPaired[address(studentExercice_)] = true;\r\n\t\t\t\r\n\t}\r\n\r\n\tfunction submitErc20(IRichERC20 studentErc20_)\r\n\tpublic\r\n\t{\r\n\t\t// Checking this contract was not used by another group before\r\n\t\trequire(!hasBeenPaired[address(studentErc20_)]);\r\n\t\t// Assigning passed ERC20 as student ERC20\r\n\t\tstudentErc20[msg.sender] = studentErc20_;\r\n\t\thasBeenPaired[address(studentErc20_)] = true;\r\n\t\t\t\r\n\t}\r\n\r\n\tfunction _compareStrings(string memory a, string memory b) \r\n\tinternal \r\n\tpure \r\n\treturns (bool) \r\n\t{\r\n    \treturn (keccak256(abi.encodePacked((a))) == keccak256(abi.encodePacked((b))));\r\n\t}\r\n\r\n\tfunction bytes32ToString(bytes32 _bytes32) \r\n\tpublic \r\n\tpure returns (string memory) \r\n\t{\r\n        uint8 i = 0;\r\n        while(i < 32 && _bytes32[i] != 0) {\r\n            i++;\r\n        }\r\n        bytes memory bytesArray = new bytes(i);\r\n        for (i = 0; i < 32 && _bytes32[i] != 0; i++) {\r\n            bytesArray[i] = _bytes32[i];\r\n        }\r\n        return string(bytesArray);\r\n    }\r\n\r\n\tfunction readTicker(address studentAddres)\r\n\tpublic\r\n\tview\r\n\treturns(string memory)\r\n\t{\r\n\t\treturn assignedTicker[studentAddres];\r\n\t}\r\n\r\n\tfunction readSupply(address studentAddres)\r\n\tpublic\r\n\tview\r\n\treturns(uint256)\r\n\t{\r\n\t\treturn assignedSupply[studentAddres];\r\n\t}\r\n\r\n\tfunction setRandomTickersAndSupply(uint256[20] memory _randomSupplies, string[20] memory _randomTickers) \r\n\tpublic \r\n\tonlyTeachers\r\n\t{\r\n\t\trandomSupplies = _randomSupplies;\r\n\t\trandomTickers = _randomTickers;\r\n\t\tnextValueStoreRank = 0;\r\n\t\tfor (uint i = 0; i < 20; i++)\r\n\t\t{\r\n\t\t\temit newRandomTickerAndSupply(randomTickers[i], randomSupplies[i]);\r\n\t\t}\r\n\t}\r\n\r\n\r\n\r\n\r\n}\r\n",
  "sourcePath": "C:\\Users\\BJeab\\OneDrive\\Documents\\ESILV\\Monnaies Numriques\\TD7\\TDUniswap\\UniswapTD\\contracts\\Evaluator.sol",
  "compiler": {
    "name": "solc",
    "version": "0.6.2+commit.bacdbe57.Emscripten.clang"
  },
  "schemaVersion": "3.4.3",
  "updatedAt": "2021-12-05T00:08:21.291Z",
  "networkType": "ethereum",
  "devdoc": {
    "methods": {}
  },
  "userdoc": {
    "methods": {}
  }
}