{
  "contractName": "ExerciceSolution",
  "abi": [
    {
      "inputs": [
        {
          "internalType": "contract ERC20Token",
          "name": "_mytoken",
          "type": "address"
        },
        {
          "internalType": "contract DummyToken",
          "name": "_dummyToken",
          "type": "address"
        },
        {
          "internalType": "contract IUniswapV2Factory",
          "name": "_uniswapV2Factory",
          "type": "address"
        },
        {
          "internalType": "contract IUniswapV2Router02",
          "name": "_uniswapV2Router02",
          "type": "address"
        },
        {
          "internalType": "address",
          "name": "_WETH",
          "type": "address"
        }
      ],
      "stateMutability": "nonpayable",
      "type": "constructor"
    },
    {
      "anonymous": false,
      "inputs": [
        {
          "indexed": false,
          "internalType": "address",
          "name": "sender",
          "type": "address"
        },
        {
          "indexed": false,
          "internalType": "bool",
          "name": "status",
          "type": "bool"
        },
        {
          "indexed": false,
          "internalType": "uint256",
          "name": "amountToken",
          "type": "uint256"
        },
        {
          "indexed": false,
          "internalType": "uint256",
          "name": "amountETH",
          "type": "uint256"
        },
        {
          "indexed": false,
          "internalType": "uint256",
          "name": "liquidity",
          "type": "uint256"
        }
      ],
      "name": "AddedLiquidity",
      "type": "event"
    },
    {
      "anonymous": false,
      "inputs": [
        {
          "indexed": false,
          "internalType": "address",
          "name": "sender",
          "type": "address"
        },
        {
          "indexed": false,
          "internalType": "bool",
          "name": "status",
          "type": "bool"
        },
        {
          "indexed": false,
          "internalType": "uint256",
          "name": "amountToken",
          "type": "uint256"
        },
        {
          "indexed": false,
          "internalType": "uint256",
          "name": "amountETH",
          "type": "uint256"
        }
      ],
      "name": "WithdrawLiquidity",
      "type": "event"
    },
    {
      "stateMutability": "payable",
      "type": "fallback",
      "payable": true
    },
    {
      "inputs": [],
      "name": "Owner",
      "outputs": [
        {
          "internalType": "address",
          "name": "",
          "type": "address"
        }
      ],
      "stateMutability": "view",
      "type": "function",
      "constant": true
    },
    {
      "inputs": [],
      "name": "WETH",
      "outputs": [
        {
          "internalType": "address",
          "name": "",
          "type": "address"
        }
      ],
      "stateMutability": "view",
      "type": "function",
      "constant": true
    },
    {
      "inputs": [],
      "name": "dummyToken",
      "outputs": [
        {
          "internalType": "contract DummyToken",
          "name": "",
          "type": "address"
        }
      ],
      "stateMutability": "view",
      "type": "function",
      "constant": true
    },
    {
      "inputs": [],
      "name": "mytoken",
      "outputs": [
        {
          "internalType": "contract ERC20Token",
          "name": "",
          "type": "address"
        }
      ],
      "stateMutability": "view",
      "type": "function",
      "constant": true
    },
    {
      "inputs": [],
      "name": "uniswapV2Factory",
      "outputs": [
        {
          "internalType": "contract IUniswapV2Factory",
          "name": "",
          "type": "address"
        }
      ],
      "stateMutability": "view",
      "type": "function",
      "constant": true
    },
    {
      "inputs": [],
      "name": "uniswapV2Router02",
      "outputs": [
        {
          "internalType": "contract IUniswapV2Router02",
          "name": "",
          "type": "address"
        }
      ],
      "stateMutability": "view",
      "type": "function",
      "constant": true
    },
    {
      "stateMutability": "payable",
      "type": "receive",
      "payable": true
    },
    {
      "inputs": [],
      "name": "getBalance",
      "outputs": [
        {
          "internalType": "uint256",
          "name": "",
          "type": "uint256"
        }
      ],
      "stateMutability": "view",
      "type": "function",
      "constant": true
    },
    {
      "inputs": [
        {
          "internalType": "address payable",
          "name": "_to",
          "type": "address"
        }
      ],
      "name": "sendViaCall",
      "outputs": [],
      "stateMutability": "payable",
      "type": "function",
      "payable": true
    },
    {
      "inputs": [],
      "name": "addLiquidity",
      "outputs": [],
      "stateMutability": "nonpayable",
      "type": "function"
    },
    {
      "inputs": [],
      "name": "withdrawLiquidity",
      "outputs": [],
      "stateMutability": "nonpayable",
      "type": "function"
    },
    {
      "inputs": [],
      "name": "swapYourTokenForDummyToken",
      "outputs": [],
      "stateMutability": "nonpayable",
      "type": "function"
    },
    {
      "inputs": [],
      "name": "swapYourTokenForEth",
      "outputs": [],
      "stateMutability": "nonpayable",
      "type": "function"
    },
    {
      "inputs": [
        {
          "internalType": "address",
          "name": "_tokenIn",
          "type": "address"
        },
        {
          "internalType": "address",
          "name": "_tokenOut",
          "type": "address"
        },
        {
          "internalType": "uint256",
          "name": "_amountIn",
          "type": "uint256"
        }
      ],
      "name": "getAmountOutMin",
      "outputs": [
        {
          "internalType": "uint256",
          "name": "",
          "type": "uint256"
        }
      ],
      "stateMutability": "nonpayable",
      "type": "function"
    },
    {
      "inputs": [
        {
          "internalType": "address",
          "name": "_tokenIn",
          "type": "address"
        },
        {
          "internalType": "address",
          "name": "_tokenOut",
          "type": "address"
        },
        {
          "internalType": "uint256",
          "name": "_amountOut",
          "type": "uint256"
        }
      ],
      "name": "getAmountInMin",
      "outputs": [
        {
          "internalType": "uint256",
          "name": "",
          "type": "uint256"
        }
      ],
      "stateMutability": "nonpayable",
      "type": "function"
    }
  ],
  "bytecode": "0x608060405234801561001057600080fd5b50604051612cc5380380612cc5833981810160405260a081101561003357600080fd5b810190808051906020019092919080519060200190929190805190602001909291908051906020019092919080519060200190929190505050846000806101000a81548173ffffffffffffffffffffffffffffffffffffffff021916908373ffffffffffffffffffffffffffffffffffffffff16021790555083600160006101000a81548173ffffffffffffffffffffffffffffffffffffffff021916908373ffffffffffffffffffffffffffffffffffffffff16021790555082600260006101000a81548173ffffffffffffffffffffffffffffffffffffffff021916908373ffffffffffffffffffffffffffffffffffffffff16021790555081600360006101000a81548173ffffffffffffffffffffffffffffffffffffffff021916908373ffffffffffffffffffffffffffffffffffffffff16021790555080600460006101000a81548173ffffffffffffffffffffffffffffffffffffffff021916908373ffffffffffffffffffffffffffffffffffffffff16021790555033600560006101000a81548173ffffffffffffffffffffffffffffffffffffffff021916908373ffffffffffffffffffffffffffffffffffffffff1602179055505050505050612ac0806102056000396000f3fe6080604052600436106100e15760003560e01c80637ea382c11161007f578063ad5c464811610059578063ad5c464814610401578063b4a99a4e14610458578063c4a85993146104af578063e8078d94146104c6576100e8565b80637ea382c11461034f578063830c29ae14610366578063a7c6402c146103aa576100e8565b80635eab74fc116100bb5780635eab74fc146101fb57806367479ec51461025257806368e19104146102a95780637c587b2214610338576100e8565b806312065fe0146100ea5780633c50eec11461011557806359d0f713146101a4576100e8565b366100e857005b005b3480156100f657600080fd5b506100ff6104dd565b6040518082815260200191505060405180910390f35b34801561012157600080fd5b5061018e6004803603606081101561013857600080fd5b81019080803573ffffffffffffffffffffffffffffffffffffffff169060200190929190803573ffffffffffffffffffffffffffffffffffffffff169060200190929190803590602001909291905050506104e5565b6040518082815260200191505060405180910390f35b3480156101b057600080fd5b506101b9610945565b604051808273ffffffffffffffffffffffffffffffffffffffff1673ffffffffffffffffffffffffffffffffffffffff16815260200191505060405180910390f35b34801561020757600080fd5b5061021061096b565b604051808273ffffffffffffffffffffffffffffffffffffffff1673ffffffffffffffffffffffffffffffffffffffff16815260200191505060405180910390f35b34801561025e57600080fd5b50610267610990565b604051808273ffffffffffffffffffffffffffffffffffffffff1673ffffffffffffffffffffffffffffffffffffffff16815260200191505060405180910390f35b3480156102b557600080fd5b50610322600480360360608110156102cc57600080fd5b81019080803573ffffffffffffffffffffffffffffffffffffffff169060200190929190803573ffffffffffffffffffffffffffffffffffffffff169060200190929190803590602001909291905050506109b6565b6040518082815260200191505060405180910390f35b34801561034457600080fd5b5061034d610e16565b005b34801561035b57600080fd5b50610364611644565b005b6103a86004803603602081101561037c57600080fd5b81019080803573ffffffffffffffffffffffffffffffffffffffff169060200190929190505050611a63565b005b3480156103b657600080fd5b506103bf611ba1565b604051808273ffffffffffffffffffffffffffffffffffffffff1673ffffffffffffffffffffffffffffffffffffffff16815260200191505060405180910390f35b34801561040d57600080fd5b50610416611bc7565b604051808273ffffffffffffffffffffffffffffffffffffffff1673ffffffffffffffffffffffffffffffffffffffff16815260200191505060405180910390f35b34801561046457600080fd5b5061046d611bed565b604051808273ffffffffffffffffffffffffffffffffffffffff1673ffffffffffffffffffffffffffffffffffffffff16815260200191505060405180910390f35b3480156104bb57600080fd5b506104c4611c13565b005b3480156104d257600080fd5b506104db6123d7565b005b600047905090565b60006060600460009054906101000a900473ffffffffffffffffffffffffffffffffffffffff1673ffffffffffffffffffffffffffffffffffffffff168573ffffffffffffffffffffffffffffffffffffffff1614806105925750600460009054906101000a900473ffffffffffffffffffffffffffffffffffffffff1673ffffffffffffffffffffffffffffffffffffffff168473ffffffffffffffffffffffffffffffffffffffff16145b1561065f5760026040519080825280602002602001820160405280156105c75781602001602082028038833980820191505090505b50905084816000815181106105d857fe5b602002602001019073ffffffffffffffffffffffffffffffffffffffff16908173ffffffffffffffffffffffffffffffffffffffff1681525050838160018151811061062057fe5b602002602001019073ffffffffffffffffffffffffffffffffffffffff16908173ffffffffffffffffffffffffffffffffffffffff168152505061078d565b600360405190808252806020026020018201604052801561068f5781602001602082028038833980820191505090505b50905084816000815181106106a057fe5b602002602001019073ffffffffffffffffffffffffffffffffffffffff16908173ffffffffffffffffffffffffffffffffffffffff1681525050600460009054906101000a900473ffffffffffffffffffffffffffffffffffffffff168160018151811061070a57fe5b602002602001019073ffffffffffffffffffffffffffffffffffffffff16908173ffffffffffffffffffffffffffffffffffffffff1681525050838160028151811061075257fe5b602002602001019073ffffffffffffffffffffffffffffffffffffffff16908173ffffffffffffffffffffffffffffffffffffffff16815250505b6060600360009054906101000a900473ffffffffffffffffffffffffffffffffffffffff1673ffffffffffffffffffffffffffffffffffffffff1663d06ca61f85846040518363ffffffff1660e01b81526004018083815260200180602001828103825283818151815260200191508051906020019060200280838360005b8381101561082757808201518184015260208101905061080c565b50505050905001935050505060006040518083038186803b15801561084b57600080fd5b505afa15801561085f573d6000803e3d6000fd5b505050506040513d6000823e3d601f19601f82011682018060405250602081101561088957600080fd5b81019080805160405193929190846401000000008211156108a957600080fd5b838201915060208201858111156108bf57600080fd5b82518660208202830111640100000000821117156108dc57600080fd5b8083526020830192505050908051906020019060200280838360005b838110156109135780820151818401526020810190506108f8565b5050505090500160405250505090508060018351038151811061093257fe5b6020026020010151925050509392505050565b600260009054906101000a900473ffffffffffffffffffffffffffffffffffffffff1681565b6000809054906101000a900473ffffffffffffffffffffffffffffffffffffffff1681565b600160009054906101000a900473ffffffffffffffffffffffffffffffffffffffff1681565b60006060600460009054906101000a900473ffffffffffffffffffffffffffffffffffffffff1673ffffffffffffffffffffffffffffffffffffffff168573ffffffffffffffffffffffffffffffffffffffff161480610a635750600460009054906101000a900473ffffffffffffffffffffffffffffffffffffffff1673ffffffffffffffffffffffffffffffffffffffff168473ffffffffffffffffffffffffffffffffffffffff16145b15610b30576002604051908082528060200260200182016040528015610a985781602001602082028038833980820191505090505b5090508481600081518110610aa957fe5b602002602001019073ffffffffffffffffffffffffffffffffffffffff16908173ffffffffffffffffffffffffffffffffffffffff16815250508381600181518110610af157fe5b602002602001019073ffffffffffffffffffffffffffffffffffffffff16908173ffffffffffffffffffffffffffffffffffffffff1681525050610c5e565b6003604051908082528060200260200182016040528015610b605781602001602082028038833980820191505090505b5090508481600081518110610b7157fe5b602002602001019073ffffffffffffffffffffffffffffffffffffffff16908173ffffffffffffffffffffffffffffffffffffffff1681525050600460009054906101000a900473ffffffffffffffffffffffffffffffffffffffff1681600181518110610bdb57fe5b602002602001019073ffffffffffffffffffffffffffffffffffffffff16908173ffffffffffffffffffffffffffffffffffffffff16815250508381600281518110610c2357fe5b602002602001019073ffffffffffffffffffffffffffffffffffffffff16908173ffffffffffffffffffffffffffffffffffffffff16815250505b6060600360009054906101000a900473ffffffffffffffffffffffffffffffffffffffff1673ffffffffffffffffffffffffffffffffffffffff16631f00ca7485846040518363ffffffff1660e01b81526004018083815260200180602001828103825283818151815260200191508051906020019060200280838360005b83811015610cf8578082015181840152602081019050610cdd565b50505050905001935050505060006040518083038186803b158015610d1c57600080fd5b505afa158015610d30573d6000803e3d6000fd5b505050506040513d6000823e3d601f19601f820116820180604052506020811015610d5a57600080fd5b8101908080516040519392919084640100000000821115610d7a57600080fd5b83820191506020820185811115610d9057600080fd5b8251866020820283011164010000000082111715610dad57600080fd5b8083526020830192505050908051906020019060200280838360005b83811015610de4578082015181840152602081019050610dc9565b50505050905001604052505050905080600183510381518110610e0357fe5b6020026020010151925050509392505050565b60008060009054906101000a900473ffffffffffffffffffffffffffffffffffffffff1673ffffffffffffffffffffffffffffffffffffffff166370a08231600560009054906101000a900473ffffffffffffffffffffffffffffffffffffffff166040518263ffffffff1660e01b8152600401808273ffffffffffffffffffffffffffffffffffffffff1673ffffffffffffffffffffffffffffffffffffffff16815260200191505060206040518083038186803b158015610ed857600080fd5b505afa158015610eec573d6000803e3d6000fd5b505050506040513d6020811015610f0257600080fd5b8101908080519060200190929190505050905060008111610f8b576040517f08c379a00000000000000000000000000000000000000000000000000000000081526004018080602001828103825260188152602001807f4e6f7420656e6f75676820746f6b656e20746f2073776170000000000000000081525060200191505060405180910390fd5b60008060009054906101000a900473ffffffffffffffffffffffffffffffffffffffff1673ffffffffffffffffffffffffffffffffffffffff1663313ce5676040518163ffffffff1660e01b815260040160206040518083038186803b158015610ff457600080fd5b505afa158015611008573d6000803e3d6000fd5b505050506040513d602081101561101e57600080fd5b810190808051906020019092919050505060ff16600a0a60320260ff16905060006001905060008060009054906101000a900473ffffffffffffffffffffffffffffffffffffffff1673ffffffffffffffffffffffffffffffffffffffff166370a08231306040518263ffffffff1660e01b8152600401808273ffffffffffffffffffffffffffffffffffffffff1673ffffffffffffffffffffffffffffffffffffffff16815260200191505060206040518083038186803b1580156110e357600080fd5b505afa1580156110f7573d6000803e3d6000fd5b505050506040513d602081101561110d57600080fd5b8101908080519060200190929190505050905060008111611179576040517f08c379a0000000000000000000000000000000000000000000000000000000008152600401808060200182810382526024815260200180612a676024913960400191505060405180910390fd5b6000809054906101000a900473ffffffffffffffffffffffffffffffffffffffff1673ffffffffffffffffffffffffffffffffffffffff1663095ea7b3600360009054906101000a900473ffffffffffffffffffffffffffffffffffffffff16856040518363ffffffff1660e01b8152600401808373ffffffffffffffffffffffffffffffffffffffff1673ffffffffffffffffffffffffffffffffffffffff16815260200182815260200192505050602060405180830381600087803b15801561124357600080fd5b505af1158015611257573d6000803e3d6000fd5b505050506040513d602081101561126d57600080fd5b81019080805190602001909291905050506112f0576040517f08c379a000000000000000000000000000000000000000000000000000000000815260040180806020018281038252600f8152602001807f617070726f7665206661696c65642e000000000000000000000000000000000081525060200191505060405180910390fd5b606060036040519080825280602002602001820160405280156113225781602001602082028038833980820191505090505b5090506000809054906101000a900473ffffffffffffffffffffffffffffffffffffffff168160008151811061135457fe5b602002602001019073ffffffffffffffffffffffffffffffffffffffff16908173ffffffffffffffffffffffffffffffffffffffff1681525050600460009054906101000a900473ffffffffffffffffffffffffffffffffffffffff16816001815181106113be57fe5b602002602001019073ffffffffffffffffffffffffffffffffffffffff16908173ffffffffffffffffffffffffffffffffffffffff1681525050600160009054906101000a900473ffffffffffffffffffffffffffffffffffffffff168160028151811061142857fe5b602002602001019073ffffffffffffffffffffffffffffffffffffffff16908173ffffffffffffffffffffffffffffffffffffffff1681525050600360009054906101000a900473ffffffffffffffffffffffffffffffffffffffff1673ffffffffffffffffffffffffffffffffffffffff166338ed17398585843060c842016040518663ffffffff1660e01b815260040180868152602001858152602001806020018473ffffffffffffffffffffffffffffffffffffffff1673ffffffffffffffffffffffffffffffffffffffff168152602001838152602001828103825285818151815260200191508051906020019060200280838360005b8381101561153e578082015181840152602081019050611523565b505050509050019650505050505050600060405180830381600087803b15801561156757600080fd5b505af115801561157b573d6000803e3d6000fd5b505050506040513d6000823e3d601f19601f8201168201806040525060208110156115a557600080fd5b81019080805160405193929190846401000000008211156115c557600080fd5b838201915060208201858111156115db57600080fd5b82518660208202830111640100000000821117156115f857600080fd5b8083526020830192505050908051906020019060200280838360005b8381101561162f578082015181840152602081019050611614565b50505050905001604052505050505050505050565b60008060009054906101000a900473ffffffffffffffffffffffffffffffffffffffff1673ffffffffffffffffffffffffffffffffffffffff1663313ce5676040518163ffffffff1660e01b815260040160206040518083038186803b1580156116ad57600080fd5b505afa1580156116c1573d6000803e3d6000fd5b505050506040513d60208110156116d757600080fd5b810190808051906020019092919050505060ff16600a0a60050260ff1690506000809054906101000a900473ffffffffffffffffffffffffffffffffffffffff1673ffffffffffffffffffffffffffffffffffffffff1663095ea7b3600360009054906101000a900473ffffffffffffffffffffffffffffffffffffffff16836040518363ffffffff1660e01b8152600401808373ffffffffffffffffffffffffffffffffffffffff1673ffffffffffffffffffffffffffffffffffffffff16815260200182815260200192505050602060405180830381600087803b1580156117c057600080fd5b505af11580156117d4573d6000803e3d6000fd5b505050506040513d60208110156117ea57600080fd5b810190808051906020019092919050505061186d576040517f08c379a000000000000000000000000000000000000000000000000000000000815260040180806020018281038252600f8152602001807f617070726f7665206661696c65642e000000000000000000000000000000000081525060200191505060405180910390fd5b6000809050600060019050600080600360009054906101000a900473ffffffffffffffffffffffffffffffffffffffff1673ffffffffffffffffffffffffffffffffffffffff166302751cec6000809054906101000a900473ffffffffffffffffffffffffffffffffffffffff168787873060c842016040518763ffffffff1660e01b8152600401808773ffffffffffffffffffffffffffffffffffffffff1673ffffffffffffffffffffffffffffffffffffffff1681526020018681526020018581526020018481526020018373ffffffffffffffffffffffffffffffffffffffff1673ffffffffffffffffffffffffffffffffffffffff16815260200182815260200196505050505050506040805180830381600087803b15801561199357600080fd5b505af11580156119a7573d6000803e3d6000fd5b505050506040513d60408110156119bd57600080fd5b810190808051906020019092919080519060200190929190505050915091507fde59221243f26882ef8d5c943a6abc2b11fced22d79608c9cf7f6c6a0155ae413060018484604051808573ffffffffffffffffffffffffffffffffffffffff1673ffffffffffffffffffffffffffffffffffffffff1681526020018415151515815260200183815260200182815260200194505050505060405180910390a15050505050565b600560009054906101000a900473ffffffffffffffffffffffffffffffffffffffff1673ffffffffffffffffffffffffffffffffffffffff163373ffffffffffffffffffffffffffffffffffffffff1614611abd57600080fd5b600060608273ffffffffffffffffffffffffffffffffffffffff164760405180600001905060006040518083038185875af1925050503d8060008114611b1f576040519150601f19603f3d011682016040523d82523d6000602084013e611b24565b606091505b509150915081611b9c576040517f08c379a00000000000000000000000000000000000000000000000000000000081526004018080602001828103825260148152602001807f4661696c656420746f2073656e6420457468657200000000000000000000000081525060200191505060405180910390fd5b505050565b600360009054906101000a900473ffffffffffffffffffffffffffffffffffffffff1681565b600460009054906101000a900473ffffffffffffffffffffffffffffffffffffffff1681565b600560009054906101000a900473ffffffffffffffffffffffffffffffffffffffff1681565b60008060009054906101000a900473ffffffffffffffffffffffffffffffffffffffff1673ffffffffffffffffffffffffffffffffffffffff166370a08231600560009054906101000a900473ffffffffffffffffffffffffffffffffffffffff166040518263ffffffff1660e01b8152600401808273ffffffffffffffffffffffffffffffffffffffff1673ffffffffffffffffffffffffffffffffffffffff16815260200191505060206040518083038186803b158015611cd557600080fd5b505afa158015611ce9573d6000803e3d6000fd5b505050506040513d6020811015611cff57600080fd5b8101908080519060200190929190505050905060008111611d88576040517f08c379a00000000000000000000000000000000000000000000000000000000081526004018080602001828103825260188152602001807f4e6f7420656e6f75676820746f6b656e20746f2073776170000000000000000081525060200191505060405180910390fd5b60008060009054906101000a900473ffffffffffffffffffffffffffffffffffffffff1673ffffffffffffffffffffffffffffffffffffffff1663313ce5676040518163ffffffff1660e01b815260040160206040518083038186803b158015611df157600080fd5b505afa158015611e05573d6000803e3d6000fd5b505050506040513d6020811015611e1b57600080fd5b810190808051906020019092919050505060ff16600a0a60320260ff16905060006001905060008060009054906101000a900473ffffffffffffffffffffffffffffffffffffffff1673ffffffffffffffffffffffffffffffffffffffff166370a08231306040518263ffffffff1660e01b8152600401808273ffffffffffffffffffffffffffffffffffffffff1673ffffffffffffffffffffffffffffffffffffffff16815260200191505060206040518083038186803b158015611ee057600080fd5b505afa158015611ef4573d6000803e3d6000fd5b505050506040513d6020811015611f0a57600080fd5b8101908080519060200190929190505050905060008111611f76576040517f08c379a0000000000000000000000000000000000000000000000000000000008152600401808060200182810382526024815260200180612a676024913960400191505060405180910390fd5b6000809054906101000a900473ffffffffffffffffffffffffffffffffffffffff1673ffffffffffffffffffffffffffffffffffffffff1663095ea7b3600360009054906101000a900473ffffffffffffffffffffffffffffffffffffffff16856040518363ffffffff1660e01b8152600401808373ffffffffffffffffffffffffffffffffffffffff1673ffffffffffffffffffffffffffffffffffffffff16815260200182815260200192505050602060405180830381600087803b15801561204057600080fd5b505af1158015612054573d6000803e3d6000fd5b505050506040513d602081101561206a57600080fd5b81019080805190602001909291905050506120ed576040517f08c379a000000000000000000000000000000000000000000000000000000000815260040180806020018281038252600f8152602001807f617070726f7665206661696c65642e000000000000000000000000000000000081525060200191505060405180910390fd5b6060600260405190808252806020026020018201604052801561211f5781602001602082028038833980820191505090505b5090506000809054906101000a900473ffffffffffffffffffffffffffffffffffffffff168160008151811061215157fe5b602002602001019073ffffffffffffffffffffffffffffffffffffffff16908173ffffffffffffffffffffffffffffffffffffffff1681525050600460009054906101000a900473ffffffffffffffffffffffffffffffffffffffff16816001815181106121bb57fe5b602002602001019073ffffffffffffffffffffffffffffffffffffffff16908173ffffffffffffffffffffffffffffffffffffffff1681525050600360009054906101000a900473ffffffffffffffffffffffffffffffffffffffff1673ffffffffffffffffffffffffffffffffffffffff166318cbafe58585843060c842016040518663ffffffff1660e01b815260040180868152602001858152602001806020018473ffffffffffffffffffffffffffffffffffffffff1673ffffffffffffffffffffffffffffffffffffffff168152602001838152602001828103825285818151815260200191508051906020019060200280838360005b838110156122d15780820151818401526020810190506122b6565b505050509050019650505050505050600060405180830381600087803b1580156122fa57600080fd5b505af115801561230e573d6000803e3d6000fd5b505050506040513d6000823e3d601f19601f82011682018060405250602081101561233857600080fd5b810190808051604051939291908464010000000082111561235857600080fd5b8382019150602082018581111561236e57600080fd5b825186602082028301116401000000008211171561238b57600080fd5b8083526020830192505050908051906020019060200280838360005b838110156123c25780820151818401526020810190506123a7565b50505050905001604052505050505050505050565b60008060009054906101000a900473ffffffffffffffffffffffffffffffffffffffff1673ffffffffffffffffffffffffffffffffffffffff1663313ce5676040518163ffffffff1660e01b815260040160206040518083038186803b15801561244057600080fd5b505afa158015612454573d6000803e3d6000fd5b505050506040513d602081101561246a57600080fd5b810190808051906020019092919050505060ff16600a0a60ff166101f40261ffff16905060004711612504576040517f08c379a000000000000000000000000000000000000000000000000000000000815260040180806020018281038252601c8152602001807f4e6f7420656e6f75676820657468657220696e20636f6e74726163740000000081525060200191505060405180910390fd5b60008060009054906101000a900473ffffffffffffffffffffffffffffffffffffffff1673ffffffffffffffffffffffffffffffffffffffff166370a08231306040518263ffffffff1660e01b8152600401808273ffffffffffffffffffffffffffffffffffffffff1673ffffffffffffffffffffffffffffffffffffffff16815260200191505060206040518083038186803b1580156125a457600080fd5b505afa1580156125b8573d6000803e3d6000fd5b505050506040513d60208110156125ce57600080fd5b8101908080519060200190929190505050905060008111612657576040517f08c379a000000000000000000000000000000000000000000000000000000000815260040180806020018281038252601c8152602001807f4e6f7420656e6f75676820746f6b656e20696e20636f6e74726163740000000081525060200191505060405180910390fd5b6000809054906101000a900473ffffffffffffffffffffffffffffffffffffffff1673ffffffffffffffffffffffffffffffffffffffff1663095ea7b3600360009054906101000a900473ffffffffffffffffffffffffffffffffffffffff16846040518363ffffffff1660e01b8152600401808373ffffffffffffffffffffffffffffffffffffffff1673ffffffffffffffffffffffffffffffffffffffff16815260200182815260200192505050602060405180830381600087803b15801561272157600080fd5b505af1158015612735573d6000803e3d6000fd5b505050506040513d602081101561274b57600080fd5b81019080805190602001909291905050506127ce576040517f08c379a000000000000000000000000000000000000000000000000000000000815260040180806020018281038252600f8152602001807f617070726f7665206661696c65642e000000000000000000000000000000000081525060200191505060405180910390fd5b60008090506000600190506000806000600360009054906101000a900473ffffffffffffffffffffffffffffffffffffffff1673ffffffffffffffffffffffffffffffffffffffff1663f305d719856000809054906101000a900473ffffffffffffffffffffffffffffffffffffffff168a89893060c842016040518863ffffffff1660e01b8152600401808773ffffffffffffffffffffffffffffffffffffffff1673ffffffffffffffffffffffffffffffffffffffff1681526020018681526020018581526020018481526020018373ffffffffffffffffffffffffffffffffffffffff1673ffffffffffffffffffffffffffffffffffffffff16815260200182815260200196505050505050506060604051808303818588803b1580156128f757600080fd5b505af115801561290b573d6000803e3d6000fd5b50505050506040513d606081101561292257600080fd5b810190808051906020019092919080519060200190929190805190602001909291905050509250925092507f84ed2b9b2258d6fdfac95747831e714c28097e85690c196f459709378067fae2306001858585604051808673ffffffffffffffffffffffffffffffffffffffff1673ffffffffffffffffffffffffffffffffffffffff168152602001851515151581526020018481526020018381526020018281526020019550505050505060405180910390a1600560009054906101000a900473ffffffffffffffffffffffffffffffffffffffff1673ffffffffffffffffffffffffffffffffffffffff164760405180600001905060006040518083038185875af1925050503d8060008114612a55576040519150601f19603f3d011682016040523d82523d6000602084013e612a5a565b606091505b5050505050505050505056fe4e6f7420656e6f75676820746f6b656e20696e20636f6e747261637420746f2073776170a2646970667358221220c0d67d7caae5c3f1e36b9baa16db4ae897df49fe8fc73e4ffa1236f7416e3f1664736f6c63430006020033",
  "source": "pragma solidity ^0.6.0;\r\nimport './ERC20Token.sol';\r\nimport './DummyToken.sol';\r\nimport \"./utils/IUniswapV2Factory.sol\";\r\nimport \"./utils/IUniswapV2Pair.sol\";\r\nimport \"./utils/IUniswapV2Router02.sol\";\r\n\r\ncontract ExerciceSolution {\r\n    ERC20Token public mytoken;\r\n    DummyToken public dummyToken;\r\n    IUniswapV2Factory public uniswapV2Factory;\r\n    IUniswapV2Router02 public uniswapV2Router02;\r\n    address public WETH;\r\n    address public Owner;\r\n\r\n    constructor( ERC20Token _mytoken, DummyToken _dummyToken, IUniswapV2Factory _uniswapV2Factory,IUniswapV2Router02 _uniswapV2Router02, address _WETH) \r\n\tpublic \r\n\t{\r\n\t\tmytoken = _mytoken;\r\n        dummyToken = _dummyToken;\r\n        uniswapV2Factory = _uniswapV2Factory; //0x5c69bee701ef814a2b6a3edd4b1652cb9cc5aa6f\r\n        uniswapV2Router02 = _uniswapV2Router02; //0x7a250d5630B4cF539739dF2C5dAcb4c659F2488D\r\n        WETH= _WETH; //0xc778417e063141139fce010982780140aa0cd5ab\r\n        Owner = msg.sender;\r\n\t}\r\n\r\n    modifier onlyOwner() {\r\n        require(msg.sender == Owner );\r\n        _;\r\n    }\r\n\r\n    fallback () external payable \r\n\t{}\r\n    \r\n\treceive () external payable \r\n\t{}\r\n\r\n    function getBalance() public view returns (uint) {\r\n        return address(this).balance;\r\n    }\r\n\r\n    function sendViaCall(address payable _to) public payable onlyOwner {\r\n        // Call returns a boolean value indicating success or failure.\r\n        (bool sent, bytes memory data) = _to.call.value(address(this).balance)(\"\");\r\n        require(sent, \"Failed to send Ether\");\r\n    }\r\n\r\n    event AddedLiquidity(address sender , bool status,uint amountToken, uint amountETH, uint liquidity);\r\n    function addLiquidity() public {\r\n        uint amountTokenDesired = 500 * 10 ** mytoken.decimals();\r\n        // checking ETH balance token in the contract\r\n        require(address(this).balance > 0, \"Not enough ether in contract\");\r\n        // checking token balance token in the contract\r\n        uint mytokenBalanceInContract =mytoken.balanceOf(address(this));\r\n        require(mytokenBalanceInContract >0 , \"Not enough token in contract\");\r\n        //uniswapV2Router02.addLiquidityETH(token, amountTokenDesired, amountTokenMin, amountETHMin, to, deadline);\r\n        //allownace of at least amountTokenDesired : to the router\r\n        require(mytoken.approve(address(uniswapV2Router02), amountTokenDesired), 'approve failed.');\r\n        uint amountTokenMin = 0;\r\n        //uint amountEthMin = (getAmountInMin(address(mytoken),WETH,amountTokenDesired))*11/10; //amountETHDesired\r\n        uint amountEthMin = 1;\r\n        (uint amountToken, uint amountETH, uint liquidity)= uniswapV2Router02.addLiquidityETH.value(amountEthMin)(address(mytoken),amountTokenDesired,amountTokenMin,amountEthMin,address(this), block.timestamp + 200);\r\n        emit AddedLiquidity(address(this),true,amountToken,amountETH,liquidity);\r\n        // refund leftover ETH to user\r\n        Owner.call.value(address(this).balance)(\"\");\r\n    }\r\n\r\n    event WithdrawLiquidity(address sender , bool status,uint amountToken, uint amountETH);\r\n\tfunction withdrawLiquidity() public {\r\n        uint liquidity = 5 * 10 ** mytoken.decimals();\r\n        //allownace of at least liquidity token to remove : to the router\r\n        require(mytoken.approve(address(uniswapV2Router02), liquidity), 'approve failed.');\r\n        uint amountTokenMin = 0;\r\n        //uint amountEthMin = getAmountInMin(address(mytoken),WETH,liquidity);\r\n        uint amountEthMin = 1;\r\n        //uniswapV2Router02.removeLiquidityETH(token, liquidity, amountTokenMin, amountETHMin, to, deadline);\r\n        (uint amountToken, uint amountETH) = uniswapV2Router02.removeLiquidityETH(address(mytoken),liquidity,amountTokenMin, amountEthMin, address(this), block.timestamp + 200);\r\n        emit WithdrawLiquidity (address(this),true,amountToken,amountETH);\r\n    }\r\n\r\n\tfunction swapYourTokenForDummyToken() public {\r\n        // checking token balance token to swap\r\n        uint mytokenBalance =mytoken.balanceOf(Owner);\r\n        require(mytokenBalance >0 , \"Not enough token to swap\");\r\n        // we transfer the token in our contract\r\n        uint amountIn = 50 * 10 ** mytoken.decimals();\r\n        //uint amountOutMin = getAmountOutMin(address(mytoken),address(dummyToken),amountIn);\r\n        uint amountOutMin =  1;\r\n        // approve the contract to withdraw token \r\n        //require(mytoken.approve(address(this), amountIn), 'approve contract failed.');\r\n        //mytoken.transferFrom(Owner, address(this), amountIn);\r\n        //require(mytoken.transferFrom(Owner, address(this), amountIn), 'transferFrom failed.');\r\n        // checking token balance token in the contract to swap\r\n        uint mytokenBalanceInContract =mytoken.balanceOf(address(this));\r\n        require(mytokenBalanceInContract >0 , \"Not enough token in contract to swap\");\r\n        // approuve the router to withdraw my token\r\n        require(mytoken.approve(address(uniswapV2Router02), amountIn), 'approve failed.');\r\n        // now swap\r\n        //get path\r\n        address[] memory path = new address[](3);\r\n        path[0] =address(mytoken);\r\n        path[1] =WETH;\r\n        path[2] =address(dummyToken);\r\n        //uniswapV2Router02.swapExactTokensForTokens(amountIn, amountOutMin, path, to, deadline);\r\n        uniswapV2Router02.swapExactTokensForTokens(amountIn,amountOutMin,path, address(this), block.timestamp + 200);\r\n\r\n    }\r\n\r\n\tfunction swapYourTokenForEth() public {\r\n        // checking token balance token to swap\r\n        uint mytokenBalance =mytoken.balanceOf(Owner);\r\n        require(mytokenBalance >0 , \"Not enough token to swap\");\r\n        // we transfer the token in our contract\r\n        uint amountIn = 50 * 10 ** mytoken.decimals();\r\n        //uint amountOutMin = getAmountOutMin(address(mytoken),WETH,amountIn);\r\n        uint amountOutMin =  1;\r\n        // approuve the contract to withdraw token \r\n        //require(mytoken.approve(address(this), amountIn), 'approve contract failed.');\r\n        //require(mytoken.transferFrom(Owner, address(this), amountIn), 'transferFrom failed.');\r\n        // checking token balance token in the contract to swap\r\n        uint mytokenBalanceInContract =mytoken.balanceOf(address(this));\r\n        require(mytokenBalanceInContract >0 , \"Not enough token in contract to swap\");\r\n        // approuve the router to withdraw my token\r\n        require(mytoken.approve(address(uniswapV2Router02), amountIn), 'approve failed.');\r\n        // now swap\r\n        //get path\r\n        address[] memory path = new address[](2);\r\n        path[0] =address(mytoken);\r\n        path[1] =WETH;\r\n        //uniswapV2Router02.swapExactTokensForETH(amountIn, amountOutMin, path, to, deadline);\r\n        uniswapV2Router02.swapExactTokensForETH(amountIn,amountOutMin, path, address(this), block.timestamp + 200);\r\n\r\n    }\r\n\r\n    //this function will return the minimum amount out from a swap\r\n    function getAmountOutMin(\r\n        address _tokenIn,\r\n        address _tokenOut,\r\n        uint _amountIn\r\n    ) public returns (uint) {\r\n        address[] memory path;\r\n        if (_tokenIn == WETH || _tokenOut == WETH) {\r\n            path = new address[](2);\r\n            path[0] = _tokenIn;\r\n            path[1] = _tokenOut;\r\n        } else {\r\n            path = new address[](3);\r\n            path[0] = _tokenIn;\r\n            path[1] = WETH;\r\n            path[2] = _tokenOut;\r\n        }\r\n\r\n        // same length as path\r\n        uint[] memory amountOutMins = uniswapV2Router02.getAmountsOut(\r\n            _amountIn,\r\n            path\r\n        );\r\n\r\n        return amountOutMins[path.length - 1];\r\n    }\r\n\r\n    //this function will return the minimum amount in required\r\n    function getAmountInMin(\r\n        address _tokenIn,\r\n        address _tokenOut,\r\n        uint _amountOut\r\n    ) public returns (uint) {\r\n        address[] memory path;\r\n        if (_tokenIn == WETH || _tokenOut == WETH) {\r\n            path = new address[](2);\r\n            path[0] = _tokenIn;\r\n            path[1] = _tokenOut;\r\n        } else {\r\n            path = new address[](3);\r\n            path[0] = _tokenIn;\r\n            path[1] = WETH;\r\n            path[2] = _tokenOut;\r\n        }\r\n\r\n        // same length as path\r\n        uint[] memory amountInMins = uniswapV2Router02.getAmountsIn(\r\n            _amountOut,\r\n            path\r\n        );\r\n\r\n        return amountInMins[path.length - 1];\r\n    }\r\n}",
  "sourcePath": "C:\\Users\\BJeab\\OneDrive\\Documents\\ESILV\\Monnaies Numriques\\TD7\\TDUniswap\\UniswapTD\\contracts\\ExerciceSolution.sol",
  "compiler": {
    "name": "solc",
    "version": "0.6.2+commit.bacdbe57.Emscripten.clang"
  },
  "schemaVersion": "3.4.3",
  "updatedAt": "2021-12-08T20:14:53.797Z",
  "networkType": "ethereum",
  "devdoc": {
    "methods": {}
  },
  "userdoc": {
    "methods": {}
  }
}